{
  "_format": "hh-sol-artifact-1",
  "contractName": "Bean",
  "sourceName": "contracts/Bean.sol",
  "abi": [
    {
      "inputs": [],
      "stateMutability": "nonpayable",
      "type": "constructor"
    },
    {
      "anonymous": false,
      "inputs": [
        {
          "indexed": true,
          "internalType": "address",
          "name": "owner",
          "type": "address"
        },
        {
          "indexed": true,
          "internalType": "address",
          "name": "spender",
          "type": "address"
        },
        {
          "indexed": false,
          "internalType": "uint256",
          "name": "value",
          "type": "uint256"
        }
      ],
      "name": "Approval",
      "type": "event"
    },
    {
      "anonymous": false,
      "inputs": [
        {
          "indexed": true,
          "internalType": "bytes32",
          "name": "role",
          "type": "bytes32"
        },
        {
          "indexed": true,
          "internalType": "bytes32",
          "name": "previousAdminRole",
          "type": "bytes32"
        },
        {
          "indexed": true,
          "internalType": "bytes32",
          "name": "newAdminRole",
          "type": "bytes32"
        }
      ],
      "name": "RoleAdminChanged",
      "type": "event"
    },
    {
      "anonymous": false,
      "inputs": [
        {
          "indexed": true,
          "internalType": "bytes32",
          "name": "role",
          "type": "bytes32"
        },
        {
          "indexed": true,
          "internalType": "address",
          "name": "account",
          "type": "address"
        },
        {
          "indexed": true,
          "internalType": "address",
          "name": "sender",
          "type": "address"
        }
      ],
      "name": "RoleGranted",
      "type": "event"
    },
    {
      "anonymous": false,
      "inputs": [
        {
          "indexed": true,
          "internalType": "bytes32",
          "name": "role",
          "type": "bytes32"
        },
        {
          "indexed": true,
          "internalType": "address",
          "name": "account",
          "type": "address"
        },
        {
          "indexed": true,
          "internalType": "address",
          "name": "sender",
          "type": "address"
        }
      ],
      "name": "RoleRevoked",
      "type": "event"
    },
    {
      "anonymous": false,
      "inputs": [
        {
          "indexed": true,
          "internalType": "address",
          "name": "from",
          "type": "address"
        },
        {
          "indexed": true,
          "internalType": "address",
          "name": "to",
          "type": "address"
        },
        {
          "indexed": false,
          "internalType": "uint256",
          "name": "value",
          "type": "uint256"
        }
      ],
      "name": "Transfer",
      "type": "event"
    },
    {
      "inputs": [],
      "name": "DEFAULT_ADMIN_ROLE",
      "outputs": [
        {
          "internalType": "bytes32",
          "name": "",
          "type": "bytes32"
        }
      ],
      "stateMutability": "view",
      "type": "function"
    },
    {
      "inputs": [],
      "name": "MINTER_ROLE",
      "outputs": [
        {
          "internalType": "bytes32",
          "name": "",
          "type": "bytes32"
        }
      ],
      "stateMutability": "view",
      "type": "function"
    },
    {
      "inputs": [
        {
          "internalType": "address",
          "name": "owner",
          "type": "address"
        },
        {
          "internalType": "address",
          "name": "spender",
          "type": "address"
        }
      ],
      "name": "allowance",
      "outputs": [
        {
          "internalType": "uint256",
          "name": "",
          "type": "uint256"
        }
      ],
      "stateMutability": "view",
      "type": "function"
    },
    {
      "inputs": [
        {
          "internalType": "address",
          "name": "spender",
          "type": "address"
        },
        {
          "internalType": "uint256",
          "name": "amount",
          "type": "uint256"
        }
      ],
      "name": "approve",
      "outputs": [
        {
          "internalType": "bool",
          "name": "",
          "type": "bool"
        }
      ],
      "stateMutability": "nonpayable",
      "type": "function"
    },
    {
      "inputs": [
        {
          "internalType": "address",
          "name": "account",
          "type": "address"
        }
      ],
      "name": "balanceOf",
      "outputs": [
        {
          "internalType": "uint256",
          "name": "",
          "type": "uint256"
        }
      ],
      "stateMutability": "view",
      "type": "function"
    },
    {
      "inputs": [
        {
          "internalType": "uint256",
          "name": "amount",
          "type": "uint256"
        }
      ],
      "name": "burn",
      "outputs": [],
      "stateMutability": "nonpayable",
      "type": "function"
    },
    {
      "inputs": [
        {
          "internalType": "address",
          "name": "account",
          "type": "address"
        },
        {
          "internalType": "uint256",
          "name": "amount",
          "type": "uint256"
        }
      ],
      "name": "burnFrom",
      "outputs": [],
      "stateMutability": "nonpayable",
      "type": "function"
    },
    {
      "inputs": [],
      "name": "buy",
      "outputs": [],
      "stateMutability": "payable",
      "type": "function"
    },
    {
      "inputs": [],
      "name": "decimals",
      "outputs": [
        {
          "internalType": "uint8",
          "name": "",
          "type": "uint8"
        }
      ],
      "stateMutability": "view",
      "type": "function"
    },
    {
      "inputs": [
        {
          "internalType": "address",
          "name": "spender",
          "type": "address"
        },
        {
          "internalType": "uint256",
          "name": "subtractedValue",
          "type": "uint256"
        }
      ],
      "name": "decreaseAllowance",
      "outputs": [
        {
          "internalType": "bool",
          "name": "",
          "type": "bool"
        }
      ],
      "stateMutability": "nonpayable",
      "type": "function"
    },
    {
      "inputs": [
        {
          "internalType": "bytes32",
          "name": "role",
          "type": "bytes32"
        }
      ],
      "name": "getRoleAdmin",
      "outputs": [
        {
          "internalType": "bytes32",
          "name": "",
          "type": "bytes32"
        }
      ],
      "stateMutability": "view",
      "type": "function"
    },
    {
      "inputs": [
        {
          "internalType": "bytes32",
          "name": "role",
          "type": "bytes32"
        },
        {
          "internalType": "address",
          "name": "account",
          "type": "address"
        }
      ],
      "name": "grantRole",
      "outputs": [],
      "stateMutability": "nonpayable",
      "type": "function"
    },
    {
      "inputs": [
        {
          "internalType": "bytes32",
          "name": "role",
          "type": "bytes32"
        },
        {
          "internalType": "address",
          "name": "account",
          "type": "address"
        }
      ],
      "name": "hasRole",
      "outputs": [
        {
          "internalType": "bool",
          "name": "",
          "type": "bool"
        }
      ],
      "stateMutability": "view",
      "type": "function"
    },
    {
      "inputs": [
        {
          "internalType": "address",
          "name": "spender",
          "type": "address"
        },
        {
          "internalType": "uint256",
          "name": "addedValue",
          "type": "uint256"
        }
      ],
      "name": "increaseAllowance",
      "outputs": [
        {
          "internalType": "bool",
          "name": "",
          "type": "bool"
        }
      ],
      "stateMutability": "nonpayable",
      "type": "function"
    },
    {
      "inputs": [
        {
          "internalType": "uint256",
          "name": "tokenValue",
          "type": "uint256"
        }
      ],
      "name": "mint",
      "outputs": [],
      "stateMutability": "nonpayable",
      "type": "function"
    },
    {
      "inputs": [],
      "name": "name",
      "outputs": [
        {
          "internalType": "string",
          "name": "",
          "type": "string"
        }
      ],
      "stateMutability": "view",
      "type": "function"
    },
    {
      "inputs": [
        {
          "internalType": "bytes32",
          "name": "role",
          "type": "bytes32"
        },
        {
          "internalType": "address",
          "name": "account",
          "type": "address"
        }
      ],
      "name": "renounceRole",
      "outputs": [],
      "stateMutability": "nonpayable",
      "type": "function"
    },
    {
      "inputs": [
        {
          "internalType": "bytes32",
          "name": "role",
          "type": "bytes32"
        },
        {
          "internalType": "address",
          "name": "account",
          "type": "address"
        }
      ],
      "name": "revokeRole",
      "outputs": [],
      "stateMutability": "nonpayable",
      "type": "function"
    },
    {
      "inputs": [
        {
          "internalType": "bytes4",
          "name": "interfaceId",
          "type": "bytes4"
        }
      ],
      "name": "supportsInterface",
      "outputs": [
        {
          "internalType": "bool",
          "name": "",
          "type": "bool"
        }
      ],
      "stateMutability": "view",
      "type": "function"
    },
    {
      "inputs": [],
      "name": "symbol",
      "outputs": [
        {
          "internalType": "string",
          "name": "",
          "type": "string"
        }
      ],
      "stateMutability": "view",
      "type": "function"
    },
    {
      "inputs": [],
      "name": "totalSupply",
      "outputs": [
        {
          "internalType": "uint256",
          "name": "",
          "type": "uint256"
        }
      ],
      "stateMutability": "view",
      "type": "function"
    },
    {
      "inputs": [
        {
          "internalType": "address",
          "name": "to",
          "type": "address"
        },
        {
          "internalType": "uint256",
          "name": "amount",
          "type": "uint256"
        }
      ],
      "name": "transfer",
      "outputs": [
        {
          "internalType": "bool",
          "name": "",
          "type": "bool"
        }
      ],
      "stateMutability": "nonpayable",
      "type": "function"
    },
    {
      "inputs": [
        {
          "internalType": "address",
          "name": "from",
          "type": "address"
        },
        {
          "internalType": "address",
          "name": "to",
          "type": "address"
        },
        {
          "internalType": "uint256",
          "name": "amount",
          "type": "uint256"
        }
      ],
      "name": "transferFrom",
      "outputs": [
        {
          "internalType": "bool",
          "name": "",
          "type": "bool"
        }
      ],
      "stateMutability": "nonpayable",
      "type": "function"
    }
  ],
  "bytecode": "0x60806040523480156200001157600080fd5b50604051806040016040528060048152602001632132b0b760e11b815250604051806040016040528060048152602001632122a0a760e11b815250816003908051906020019062000064929190620002a0565b5080516200007a906004906020840190620002a0565b5050600680546001600160a01b03191633908117909155620000c19150620000a0601290565b620000ad90600a62000459565b620000bb906103e862000471565b62000100565b620000ce600033620001e9565b620000fa7f9f2df0fed2c77648de5860a4cc508cd0818c85b8b8a1ab4ceeef8d981c8956a633620001e9565b620004eb565b6001600160a01b0382166200015b5760405162461bcd60e51b815260206004820152601f60248201527f45524332303a206d696e7420746f20746865207a65726f206164647265737300604482015260640160405180910390fd5b80600260008282546200016f919062000493565b90915550506001600160a01b038216600090815260208190526040812080548392906200019e90849062000493565b90915550506040518181526001600160a01b038316906000907fddf252ad1be2c89b69c2b068fc378daa952ba7f163c4a11628f55a4df523b3ef9060200160405180910390a35b5050565b620001f5828262000273565b620001e55760008281526005602090815260408083206001600160a01b03851684529091529020805460ff191660011790556200022f3390565b6001600160a01b0316816001600160a01b0316837f2f8788117e7eff1d82e926ec794901d17c78024a50270940304540a733656f0d60405160405180910390a45050565b60008281526005602090815260408083206001600160a01b038516845290915290205460ff165b92915050565b828054620002ae90620004ae565b90600052602060002090601f016020900481019282620002d257600085556200031d565b82601f10620002ed57805160ff19168380011785556200031d565b828001600101855582156200031d579182015b828111156200031d57825182559160200191906001019062000300565b506200032b9291506200032f565b5090565b5b808211156200032b576000815560010162000330565b634e487b7160e01b600052601160045260246000fd5b600181815b808511156200039d57816000190482111562000381576200038162000346565b808516156200038f57918102915b93841c939080029062000361565b509250929050565b600082620003b6575060016200029a565b81620003c5575060006200029a565b8160018114620003de5760028114620003e95762000409565b60019150506200029a565b60ff841115620003fd57620003fd62000346565b50506001821b6200029a565b5060208310610133831016604e8410600b84101617156200042e575081810a6200029a565b6200043a83836200035c565b806000190482111562000451576200045162000346565b029392505050565b60006200046a60ff841683620003a5565b9392505050565b60008160001904831182151516156200048e576200048e62000346565b500290565b60008219821115620004a957620004a962000346565b500190565b600181811c90821680620004c357607f821691505b60208210811415620004e557634e487b7160e01b600052602260045260246000fd5b50919050565b61156880620004fb6000396000f3fe6080604052600436106101405760003560e01c806370a08231116100b6578063a457c2d71161006f578063a457c2d714610389578063a6f2ae3a146103a9578063a9059cbb146103b1578063d5391393146103d1578063d547741f14610405578063dd62ed3e1461042557600080fd5b806370a08231146102c957806379cc6790146102ff57806391d148541461031f57806395d89b411461033f578063a0712d6814610354578063a217fddf1461037457600080fd5b8063248a9ca311610108578063248a9ca3146101fb5780632f2ff15d1461022b578063313ce5671461024d57806336568abe14610269578063395093511461028957806342966c68146102a957600080fd5b806301ffc9a71461014557806306fdde031461017a578063095ea7b31461019c57806318160ddd146101bc57806323b872dd146101db575b600080fd5b34801561015157600080fd5b50610165610160366004611153565b610445565b60405190151581526020015b60405180910390f35b34801561018657600080fd5b5061018f61047c565b60405161017191906111a9565b3480156101a857600080fd5b506101656101b73660046111f8565b61050e565b3480156101c857600080fd5b506002545b604051908152602001610171565b3480156101e757600080fd5b506101656101f6366004611222565b610526565b34801561020757600080fd5b506101cd61021636600461125e565b60009081526005602052604090206001015490565b34801561023757600080fd5b5061024b610246366004611277565b61054a565b005b34801561025957600080fd5b5060405160128152602001610171565b34801561027557600080fd5b5061024b610284366004611277565b610574565b34801561029557600080fd5b506101656102a43660046111f8565b6105f7565b3480156102b557600080fd5b5061024b6102c436600461125e565b610619565b3480156102d557600080fd5b506101cd6102e43660046112a3565b6001600160a01b031660009081526020819052604090205490565b34801561030b57600080fd5b5061024b61031a3660046111f8565b610626565b34801561032b57600080fd5b5061016561033a366004611277565b61063b565b34801561034b57600080fd5b5061018f610666565b34801561036057600080fd5b5061024b61036f36600461125e565b610675565b34801561038057600080fd5b506101cd600081565b34801561039557600080fd5b506101656103a43660046111f8565b6106be565b61024b610739565b3480156103bd57600080fd5b506101656103cc3660046111f8565b61085e565b3480156103dd57600080fd5b506101cd7f9f2df0fed2c77648de5860a4cc508cd0818c85b8b8a1ab4ceeef8d981c8956a681565b34801561041157600080fd5b5061024b610420366004611277565b61086c565b34801561043157600080fd5b506101cd6104403660046112be565b610891565b60006001600160e01b03198216637965db0b60e01b148061047657506301ffc9a760e01b6001600160e01b03198316145b92915050565b60606003805461048b906112e8565b80601f01602080910402602001604051908101604052809291908181526020018280546104b7906112e8565b80156105045780601f106104d957610100808354040283529160200191610504565b820191906000526020600020905b8154815290600101906020018083116104e757829003601f168201915b5050505050905090565b60003361051c8185856108bc565b5060019392505050565b6000336105348582856109e0565b61053f858585610a5a565b506001949350505050565b60008281526005602052604090206001015461056581610c28565b61056f8383610c32565b505050565b6001600160a01b03811633146105e95760405162461bcd60e51b815260206004820152602f60248201527f416363657373436f6e74726f6c3a2063616e206f6e6c792072656e6f756e636560448201526e103937b632b9903337b91039b2b63360891b60648201526084015b60405180910390fd5b6105f38282610cb8565b5050565b60003361051c81858561060a8383610891565b6106149190611339565b6108bc565b6106233382610d1f565b50565b6106318233836109e0565b6105f38282610d1f565b60009182526005602090815260408084206001600160a01b0393909316845291905290205460ff1690565b60606004805461048b906112e8565b7f9f2df0fed2c77648de5860a4cc508cd0818c85b8b8a1ab4ceeef8d981c8956a661069f81610c28565b6105f3336106af6012600a611435565b6106b99085611444565b610e6d565b600033816106cc8286610891565b90508381101561072c5760405162461bcd60e51b815260206004820152602560248201527f45524332303a2064656372656173656420616c6c6f77616e63652062656c6f77604482015264207a65726f60d81b60648201526084016105e0565b61053f82868684036108bc565b662386f26fc100003410156107af5760405162461bcd60e51b815260206004820152603660248201527f796f75206e656564206d6f7265207468616e20302e3031204d4154494320746f60448201527510383ab931b430b9b2903132b0b7103a37b5b2b7399760511b60648201526084016105e0565b6107ca336107bf6012600a611435565b6106b9906014611444565b6006546040516000916001600160a01b03169034908381818185875af1925050503d8060008114610817576040519150601f19603f3d011682016040523d82523d6000602084013e61081c565b606091505b50509050806106235760405162461bcd60e51b815260206004820152600e60248201526d19195c1bdcda5d0819985a5b195960921b60448201526064016105e0565b60003361051c818585610a5a565b60008281526005602052604090206001015461088781610c28565b61056f8383610cb8565b6001600160a01b03918216600090815260016020908152604080832093909416825291909152205490565b6001600160a01b03831661091e5760405162461bcd60e51b8152602060048201526024808201527f45524332303a20617070726f76652066726f6d20746865207a65726f206164646044820152637265737360e01b60648201526084016105e0565b6001600160a01b03821661097f5760405162461bcd60e51b815260206004820152602260248201527f45524332303a20617070726f766520746f20746865207a65726f206164647265604482015261737360f01b60648201526084016105e0565b6001600160a01b0383811660008181526001602090815260408083209487168084529482529182902085905590518481527f8c5be1e5ebec7d5bd14f71427d1e84f3dd0314c0f7b2291e5b200ac8c7c3b925910160405180910390a3505050565b60006109ec8484610891565b90506000198114610a545781811015610a475760405162461bcd60e51b815260206004820152601d60248201527f45524332303a20696e73756666696369656e7420616c6c6f77616e636500000060448201526064016105e0565b610a5484848484036108bc565b50505050565b6001600160a01b038316610abe5760405162461bcd60e51b815260206004820152602560248201527f45524332303a207472616e736665722066726f6d20746865207a65726f206164604482015264647265737360d81b60648201526084016105e0565b6001600160a01b038216610b205760405162461bcd60e51b815260206004820152602360248201527f45524332303a207472616e7366657220746f20746865207a65726f206164647260448201526265737360e81b60648201526084016105e0565b6001600160a01b03831660009081526020819052604090205481811015610b985760405162461bcd60e51b815260206004820152602660248201527f45524332303a207472616e7366657220616d6f756e7420657863656564732062604482015265616c616e636560d01b60648201526084016105e0565b6001600160a01b03808516600090815260208190526040808220858503905591851681529081208054849290610bcf908490611339565b92505081905550826001600160a01b0316846001600160a01b03167fddf252ad1be2c89b69c2b068fc378daa952ba7f163c4a11628f55a4df523b3ef84604051610c1b91815260200190565b60405180910390a3610a54565b6106238133610f4c565b610c3c828261063b565b6105f35760008281526005602090815260408083206001600160a01b03851684529091529020805460ff19166001179055610c743390565b6001600160a01b0316816001600160a01b0316837f2f8788117e7eff1d82e926ec794901d17c78024a50270940304540a733656f0d60405160405180910390a45050565b610cc2828261063b565b156105f35760008281526005602090815260408083206001600160a01b0385168085529252808320805460ff1916905551339285917ff6391f5c32d9c69d2a47ea670b442974b53935d1edc7fd64eb21e047a839171b9190a45050565b6001600160a01b038216610d7f5760405162461bcd60e51b815260206004820152602160248201527f45524332303a206275726e2066726f6d20746865207a65726f206164647265736044820152607360f81b60648201526084016105e0565b6001600160a01b03821660009081526020819052604090205481811015610df35760405162461bcd60e51b815260206004820152602260248201527f45524332303a206275726e20616d6f756e7420657863656564732062616c616e604482015261636560f01b60648201526084016105e0565b6001600160a01b0383166000908152602081905260408120838303905560028054849290610e22908490611463565b90915550506040518281526000906001600160a01b038516907fddf252ad1be2c89b69c2b068fc378daa952ba7f163c4a11628f55a4df523b3ef9060200160405180910390a3505050565b6001600160a01b038216610ec35760405162461bcd60e51b815260206004820152601f60248201527f45524332303a206d696e7420746f20746865207a65726f20616464726573730060448201526064016105e0565b8060026000828254610ed59190611339565b90915550506001600160a01b03821660009081526020819052604081208054839290610f02908490611339565b90915550506040518181526001600160a01b038316906000907fddf252ad1be2c89b69c2b068fc378daa952ba7f163c4a11628f55a4df523b3ef9060200160405180910390a35050565b610f56828261063b565b6105f357610f6e816001600160a01b03166014610fb0565b610f79836020610fb0565b604051602001610f8a92919061147a565b60408051601f198184030181529082905262461bcd60e51b82526105e0916004016111a9565b60606000610fbf836002611444565b610fca906002611339565b67ffffffffffffffff811115610fe257610fe26114ef565b6040519080825280601f01601f19166020018201604052801561100c576020820181803683370190505b509050600360fc1b8160008151811061102757611027611505565b60200101906001600160f81b031916908160001a905350600f60fb1b8160018151811061105657611056611505565b60200101906001600160f81b031916908160001a905350600061107a846002611444565b611085906001611339565b90505b60018111156110fd576f181899199a1a9b1b9c1cb0b131b232b360811b85600f16601081106110b9576110b9611505565b1a60f81b8282815181106110cf576110cf611505565b60200101906001600160f81b031916908160001a90535060049490941c936110f68161151b565b9050611088565b50831561114c5760405162461bcd60e51b815260206004820181905260248201527f537472696e67733a20686578206c656e67746820696e73756666696369656e7460448201526064016105e0565b9392505050565b60006020828403121561116557600080fd5b81356001600160e01b03198116811461114c57600080fd5b60005b83811015611198578181015183820152602001611180565b83811115610a545750506000910152565b60208152600082518060208401526111c881604085016020870161117d565b601f01601f19169190910160400192915050565b80356001600160a01b03811681146111f357600080fd5b919050565b6000806040838503121561120b57600080fd5b611214836111dc565b946020939093013593505050565b60008060006060848603121561123757600080fd5b611240846111dc565b925061124e602085016111dc565b9150604084013590509250925092565b60006020828403121561127057600080fd5b5035919050565b6000806040838503121561128a57600080fd5b8235915061129a602084016111dc565b90509250929050565b6000602082840312156112b557600080fd5b61114c826111dc565b600080604083850312156112d157600080fd5b6112da836111dc565b915061129a602084016111dc565b600181811c908216806112fc57607f821691505b6020821081141561131d57634e487b7160e01b600052602260045260246000fd5b50919050565b634e487b7160e01b600052601160045260246000fd5b6000821982111561134c5761134c611323565b500190565b600181815b8085111561138c57816000190482111561137257611372611323565b8085161561137f57918102915b93841c9390800290611356565b509250929050565b6000826113a357506001610476565b816113b057506000610476565b81600181146113c657600281146113d0576113ec565b6001915050610476565b60ff8411156113e1576113e1611323565b50506001821b610476565b5060208310610133831016604e8410600b841016171561140f575081810a610476565b6114198383611351565b806000190482111561142d5761142d611323565b029392505050565b600061114c60ff841683611394565b600081600019048311821515161561145e5761145e611323565b500290565b60008282101561147557611475611323565b500390565b7f416363657373436f6e74726f6c3a206163636f756e74200000000000000000008152600083516114b281601785016020880161117d565b7001034b99036b4b9b9b4b733903937b6329607d1b60179184019182015283516114e381602884016020880161117d565b01602801949350505050565b634e487b7160e01b600052604160045260246000fd5b634e487b7160e01b600052603260045260246000fd5b60008161152a5761152a611323565b50600019019056fea2646970667358221220cf000c1b7abcb94c37e0adad421e3db6a448e468afb891cb8500bad954e07e8664736f6c634300080b0033",
  "linkReferences": {},
  "deployedLinkReferences": {}
}