{
  "_format": "hh-sol-artifact-1",
  "contractName": "Bean",
  "sourceName": "contracts/Bean.sol",
  "abi": [
    {
      "inputs": [],
      "stateMutability": "nonpayable",
      "type": "constructor"
    },
    {
      "anonymous": false,
      "inputs": [
        {
          "indexed": true,
          "internalType": "address",
          "name": "owner",
          "type": "address"
        },
        {
          "indexed": true,
          "internalType": "address",
          "name": "spender",
          "type": "address"
        },
        {
          "indexed": false,
          "internalType": "uint256",
          "name": "value",
          "type": "uint256"
        }
      ],
      "name": "Approval",
      "type": "event"
    },
    {
      "anonymous": false,
      "inputs": [
        {
          "indexed": true,
          "internalType": "bytes32",
          "name": "role",
          "type": "bytes32"
        },
        {
          "indexed": true,
          "internalType": "bytes32",
          "name": "previousAdminRole",
          "type": "bytes32"
        },
        {
          "indexed": true,
          "internalType": "bytes32",
          "name": "newAdminRole",
          "type": "bytes32"
        }
      ],
      "name": "RoleAdminChanged",
      "type": "event"
    },
    {
      "anonymous": false,
      "inputs": [
        {
          "indexed": true,
          "internalType": "bytes32",
          "name": "role",
          "type": "bytes32"
        },
        {
          "indexed": true,
          "internalType": "address",
          "name": "account",
          "type": "address"
        },
        {
          "indexed": true,
          "internalType": "address",
          "name": "sender",
          "type": "address"
        }
      ],
      "name": "RoleGranted",
      "type": "event"
    },
    {
      "anonymous": false,
      "inputs": [
        {
          "indexed": true,
          "internalType": "bytes32",
          "name": "role",
          "type": "bytes32"
        },
        {
          "indexed": true,
          "internalType": "address",
          "name": "account",
          "type": "address"
        },
        {
          "indexed": true,
          "internalType": "address",
          "name": "sender",
          "type": "address"
        }
      ],
      "name": "RoleRevoked",
      "type": "event"
    },
    {
      "anonymous": false,
      "inputs": [
        {
          "indexed": true,
          "internalType": "address",
          "name": "from",
          "type": "address"
        },
        {
          "indexed": true,
          "internalType": "address",
          "name": "to",
          "type": "address"
        },
        {
          "indexed": false,
          "internalType": "uint256",
          "name": "value",
          "type": "uint256"
        }
      ],
      "name": "Transfer",
      "type": "event"
    },
    {
      "inputs": [],
      "name": "DEFAULT_ADMIN_ROLE",
      "outputs": [
        {
          "internalType": "bytes32",
          "name": "",
          "type": "bytes32"
        }
      ],
      "stateMutability": "view",
      "type": "function"
    },
    {
      "inputs": [],
      "name": "MINTER_ROLE",
      "outputs": [
        {
          "internalType": "bytes32",
          "name": "",
          "type": "bytes32"
        }
      ],
      "stateMutability": "view",
      "type": "function"
    },
    {
      "inputs": [
        {
          "internalType": "address",
          "name": "owner",
          "type": "address"
        },
        {
          "internalType": "address",
          "name": "spender",
          "type": "address"
        }
      ],
      "name": "allowance",
      "outputs": [
        {
          "internalType": "uint256",
          "name": "",
          "type": "uint256"
        }
      ],
      "stateMutability": "view",
      "type": "function"
    },
    {
      "inputs": [
        {
          "internalType": "address",
          "name": "spender",
          "type": "address"
        },
        {
          "internalType": "uint256",
          "name": "amount",
          "type": "uint256"
        }
      ],
      "name": "approve",
      "outputs": [
        {
          "internalType": "bool",
          "name": "",
          "type": "bool"
        }
      ],
      "stateMutability": "nonpayable",
      "type": "function"
    },
    {
      "inputs": [
        {
          "internalType": "address",
          "name": "account",
          "type": "address"
        }
      ],
      "name": "balanceOf",
      "outputs": [
        {
          "internalType": "uint256",
          "name": "",
          "type": "uint256"
        }
      ],
      "stateMutability": "view",
      "type": "function"
    },
    {
      "inputs": [
        {
          "internalType": "uint256",
          "name": "amount",
          "type": "uint256"
        }
      ],
      "name": "burn",
      "outputs": [],
      "stateMutability": "nonpayable",
      "type": "function"
    },
    {
      "inputs": [
        {
          "internalType": "address",
          "name": "account",
          "type": "address"
        },
        {
          "internalType": "uint256",
          "name": "amount",
          "type": "uint256"
        }
      ],
      "name": "burnFrom",
      "outputs": [],
      "stateMutability": "nonpayable",
      "type": "function"
    },
    {
      "inputs": [],
      "name": "decimals",
      "outputs": [
        {
          "internalType": "uint8",
          "name": "",
          "type": "uint8"
        }
      ],
      "stateMutability": "view",
      "type": "function"
    },
    {
      "inputs": [
        {
          "internalType": "address",
          "name": "spender",
          "type": "address"
        },
        {
          "internalType": "uint256",
          "name": "subtractedValue",
          "type": "uint256"
        }
      ],
      "name": "decreaseAllowance",
      "outputs": [
        {
          "internalType": "bool",
          "name": "",
          "type": "bool"
        }
      ],
      "stateMutability": "nonpayable",
      "type": "function"
    },
    {
      "inputs": [
        {
          "internalType": "bytes32",
          "name": "role",
          "type": "bytes32"
        }
      ],
      "name": "getRoleAdmin",
      "outputs": [
        {
          "internalType": "bytes32",
          "name": "",
          "type": "bytes32"
        }
      ],
      "stateMutability": "view",
      "type": "function"
    },
    {
      "inputs": [
        {
          "internalType": "bytes32",
          "name": "role",
          "type": "bytes32"
        },
        {
          "internalType": "address",
          "name": "account",
          "type": "address"
        }
      ],
      "name": "grantRole",
      "outputs": [],
      "stateMutability": "nonpayable",
      "type": "function"
    },
    {
      "inputs": [
        {
          "internalType": "bytes32",
          "name": "role",
          "type": "bytes32"
        },
        {
          "internalType": "address",
          "name": "account",
          "type": "address"
        }
      ],
      "name": "hasRole",
      "outputs": [
        {
          "internalType": "bool",
          "name": "",
          "type": "bool"
        }
      ],
      "stateMutability": "view",
      "type": "function"
    },
    {
      "inputs": [
        {
          "internalType": "address",
          "name": "spender",
          "type": "address"
        },
        {
          "internalType": "uint256",
          "name": "addedValue",
          "type": "uint256"
        }
      ],
      "name": "increaseAllowance",
      "outputs": [
        {
          "internalType": "bool",
          "name": "",
          "type": "bool"
        }
      ],
      "stateMutability": "nonpayable",
      "type": "function"
    },
    {
      "inputs": [
        {
          "internalType": "uint256",
          "name": "tokenValue",
          "type": "uint256"
        }
      ],
      "name": "mint",
      "outputs": [],
      "stateMutability": "nonpayable",
      "type": "function"
    },
    {
      "inputs": [],
      "name": "name",
      "outputs": [
        {
          "internalType": "string",
          "name": "",
          "type": "string"
        }
      ],
      "stateMutability": "view",
      "type": "function"
    },
    {
      "inputs": [
        {
          "internalType": "bytes32",
          "name": "role",
          "type": "bytes32"
        },
        {
          "internalType": "address",
          "name": "account",
          "type": "address"
        }
      ],
      "name": "renounceRole",
      "outputs": [],
      "stateMutability": "nonpayable",
      "type": "function"
    },
    {
      "inputs": [
        {
          "internalType": "bytes32",
          "name": "role",
          "type": "bytes32"
        },
        {
          "internalType": "address",
          "name": "account",
          "type": "address"
        }
      ],
      "name": "revokeRole",
      "outputs": [],
      "stateMutability": "nonpayable",
      "type": "function"
    },
    {
      "inputs": [
        {
          "internalType": "bytes4",
          "name": "interfaceId",
          "type": "bytes4"
        }
      ],
      "name": "supportsInterface",
      "outputs": [
        {
          "internalType": "bool",
          "name": "",
          "type": "bool"
        }
      ],
      "stateMutability": "view",
      "type": "function"
    },
    {
      "inputs": [],
      "name": "symbol",
      "outputs": [
        {
          "internalType": "string",
          "name": "",
          "type": "string"
        }
      ],
      "stateMutability": "view",
      "type": "function"
    },
    {
      "inputs": [],
      "name": "totalSupply",
      "outputs": [
        {
          "internalType": "uint256",
          "name": "",
          "type": "uint256"
        }
      ],
      "stateMutability": "view",
      "type": "function"
    },
    {
      "inputs": [
        {
          "internalType": "address",
          "name": "to",
          "type": "address"
        },
        {
          "internalType": "uint256",
          "name": "amount",
          "type": "uint256"
        }
      ],
      "name": "transfer",
      "outputs": [
        {
          "internalType": "bool",
          "name": "",
          "type": "bool"
        }
      ],
      "stateMutability": "nonpayable",
      "type": "function"
    },
    {
      "inputs": [
        {
          "internalType": "address",
          "name": "from",
          "type": "address"
        },
        {
          "internalType": "address",
          "name": "to",
          "type": "address"
        },
        {
          "internalType": "uint256",
          "name": "amount",
          "type": "uint256"
        }
      ],
      "name": "transferFrom",
      "outputs": [
        {
          "internalType": "bool",
          "name": "",
          "type": "bool"
        }
      ],
      "stateMutability": "nonpayable",
      "type": "function"
    }
  ],
  "bytecode": "0x60806040523480156200001157600080fd5b50604051806040016040528060048152602001632132b0b760e11b815250604051806040016040528060048152602001632122a0a760e11b815250816003908051906020019062000064929190620001b0565b5080516200007a906004906020840190620001b0565b506200008c915060009050336200010b565b620000a7600080516020620015c2833981519152336200010b565b620000d6600080516020620015c2833981519152735e988f7d828d8478f71104c9ede275a5f9f8344d6200010b565b62000105600080516020620015c2833981519152735eb47ba77b28a10862cab6fb6865adc246ac2a586200010b565b62000293565b60008281526005602090815260408083206001600160a01b038516845290915290205460ff16620001ac5760008281526005602090815260408083206001600160a01b03851684529091529020805460ff191660011790556200016b3390565b6001600160a01b0316816001600160a01b0316837f2f8788117e7eff1d82e926ec794901d17c78024a50270940304540a733656f0d60405160405180910390a45b5050565b828054620001be9062000256565b90600052602060002090601f016020900481019282620001e257600085556200022d565b82601f10620001fd57805160ff19168380011785556200022d565b828001600101855582156200022d579182015b828111156200022d57825182559160200191906001019062000210565b506200023b9291506200023f565b5090565b5b808211156200023b576000815560010162000240565b600181811c908216806200026b57607f821691505b602082108114156200028d57634e487b7160e01b600052602260045260246000fd5b50919050565b61131f80620002a36000396000f3fe608060405234801561001057600080fd5b50600436106101425760003560e01c806370a08231116100b8578063a217fddf1161007c578063a217fddf146102a6578063a457c2d7146102ae578063a9059cbb146102c1578063d5391393146102d4578063d547741f146102fb578063dd62ed3e1461030e57600080fd5b806370a082311461023c57806379cc67901461026557806391d148541461027857806395d89b411461028b578063a0712d681461029357600080fd5b8063248a9ca31161010a578063248a9ca3146101bc5780632f2ff15d146101df578063313ce567146101f457806336568abe14610203578063395093511461021657806342966c681461022957600080fd5b806301ffc9a71461014757806306fdde031461016f578063095ea7b31461018457806318160ddd1461019757806323b872dd146101a9575b600080fd5b61015a610155366004610f0a565b610321565b60405190151581526020015b60405180910390f35b610177610358565b6040516101669190610f60565b61015a610192366004610faf565b6103ea565b6002545b604051908152602001610166565b61015a6101b7366004610fd9565b610402565b61019b6101ca366004611015565b60009081526005602052604090206001015490565b6101f26101ed36600461102e565b610426565b005b60405160128152602001610166565b6101f261021136600461102e565b610450565b61015a610224366004610faf565b6104d3565b6101f2610237366004611015565b6104f5565b61019b61024a36600461105a565b6001600160a01b031660009081526020819052604090205490565b6101f2610273366004610faf565b610502565b61015a61028636600461102e565b610517565b610177610542565b6101f26102a1366004611015565b610551565b61019b600081565b61015a6102bc366004610faf565b61059a565b61015a6102cf366004610faf565b610615565b61019b7f9f2df0fed2c77648de5860a4cc508cd0818c85b8b8a1ab4ceeef8d981c8956a681565b6101f261030936600461102e565b610623565b61019b61031c366004611075565b610648565b60006001600160e01b03198216637965db0b60e01b148061035257506301ffc9a760e01b6001600160e01b03198316145b92915050565b6060600380546103679061109f565b80601f01602080910402602001604051908101604052809291908181526020018280546103939061109f565b80156103e05780601f106103b5576101008083540402835291602001916103e0565b820191906000526020600020905b8154815290600101906020018083116103c357829003601f168201915b5050505050905090565b6000336103f8818585610673565b5060019392505050565b600033610410858285610797565b61041b858585610811565b506001949350505050565b600082815260056020526040902060010154610441816109df565b61044b83836109e9565b505050565b6001600160a01b03811633146104c55760405162461bcd60e51b815260206004820152602f60248201527f416363657373436f6e74726f6c3a2063616e206f6e6c792072656e6f756e636560448201526e103937b632b9903337b91039b2b63360891b60648201526084015b60405180910390fd5b6104cf8282610a6f565b5050565b6000336103f88185856104e68383610648565b6104f091906110f0565b610673565b6104ff3382610ad6565b50565b61050d823383610797565b6104cf8282610ad6565b60009182526005602090815260408084206001600160a01b0393909316845291905290205460ff1690565b6060600480546103679061109f565b7f9f2df0fed2c77648de5860a4cc508cd0818c85b8b8a1ab4ceeef8d981c8956a661057b816109df565b6104cf3361058b6012600a6111ec565b61059590856111fb565b610c24565b600033816105a88286610648565b9050838110156106085760405162461bcd60e51b815260206004820152602560248201527f45524332303a2064656372656173656420616c6c6f77616e63652062656c6f77604482015264207a65726f60d81b60648201526084016104bc565b61041b8286868403610673565b6000336103f8818585610811565b60008281526005602052604090206001015461063e816109df565b61044b8383610a6f565b6001600160a01b03918216600090815260016020908152604080832093909416825291909152205490565b6001600160a01b0383166106d55760405162461bcd60e51b8152602060048201526024808201527f45524332303a20617070726f76652066726f6d20746865207a65726f206164646044820152637265737360e01b60648201526084016104bc565b6001600160a01b0382166107365760405162461bcd60e51b815260206004820152602260248201527f45524332303a20617070726f766520746f20746865207a65726f206164647265604482015261737360f01b60648201526084016104bc565b6001600160a01b0383811660008181526001602090815260408083209487168084529482529182902085905590518481527f8c5be1e5ebec7d5bd14f71427d1e84f3dd0314c0f7b2291e5b200ac8c7c3b925910160405180910390a3505050565b60006107a38484610648565b9050600019811461080b57818110156107fe5760405162461bcd60e51b815260206004820152601d60248201527f45524332303a20696e73756666696369656e7420616c6c6f77616e636500000060448201526064016104bc565b61080b8484848403610673565b50505050565b6001600160a01b0383166108755760405162461bcd60e51b815260206004820152602560248201527f45524332303a207472616e736665722066726f6d20746865207a65726f206164604482015264647265737360d81b60648201526084016104bc565b6001600160a01b0382166108d75760405162461bcd60e51b815260206004820152602360248201527f45524332303a207472616e7366657220746f20746865207a65726f206164647260448201526265737360e81b60648201526084016104bc565b6001600160a01b0383166000908152602081905260409020548181101561094f5760405162461bcd60e51b815260206004820152602660248201527f45524332303a207472616e7366657220616d6f756e7420657863656564732062604482015265616c616e636560d01b60648201526084016104bc565b6001600160a01b038085166000908152602081905260408082208585039055918516815290812080548492906109869084906110f0565b92505081905550826001600160a01b0316846001600160a01b03167fddf252ad1be2c89b69c2b068fc378daa952ba7f163c4a11628f55a4df523b3ef846040516109d291815260200190565b60405180910390a361080b565b6104ff8133610d03565b6109f38282610517565b6104cf5760008281526005602090815260408083206001600160a01b03851684529091529020805460ff19166001179055610a2b3390565b6001600160a01b0316816001600160a01b0316837f2f8788117e7eff1d82e926ec794901d17c78024a50270940304540a733656f0d60405160405180910390a45050565b610a798282610517565b156104cf5760008281526005602090815260408083206001600160a01b0385168085529252808320805460ff1916905551339285917ff6391f5c32d9c69d2a47ea670b442974b53935d1edc7fd64eb21e047a839171b9190a45050565b6001600160a01b038216610b365760405162461bcd60e51b815260206004820152602160248201527f45524332303a206275726e2066726f6d20746865207a65726f206164647265736044820152607360f81b60648201526084016104bc565b6001600160a01b03821660009081526020819052604090205481811015610baa5760405162461bcd60e51b815260206004820152602260248201527f45524332303a206275726e20616d6f756e7420657863656564732062616c616e604482015261636560f01b60648201526084016104bc565b6001600160a01b0383166000908152602081905260408120838303905560028054849290610bd990849061121a565b90915550506040518281526000906001600160a01b038516907fddf252ad1be2c89b69c2b068fc378daa952ba7f163c4a11628f55a4df523b3ef9060200160405180910390a3505050565b6001600160a01b038216610c7a5760405162461bcd60e51b815260206004820152601f60248201527f45524332303a206d696e7420746f20746865207a65726f20616464726573730060448201526064016104bc565b8060026000828254610c8c91906110f0565b90915550506001600160a01b03821660009081526020819052604081208054839290610cb99084906110f0565b90915550506040518181526001600160a01b038316906000907fddf252ad1be2c89b69c2b068fc378daa952ba7f163c4a11628f55a4df523b3ef9060200160405180910390a35050565b610d0d8282610517565b6104cf57610d25816001600160a01b03166014610d67565b610d30836020610d67565b604051602001610d41929190611231565b60408051601f198184030181529082905262461bcd60e51b82526104bc91600401610f60565b60606000610d768360026111fb565b610d819060026110f0565b67ffffffffffffffff811115610d9957610d996112a6565b6040519080825280601f01601f191660200182016040528015610dc3576020820181803683370190505b509050600360fc1b81600081518110610dde57610dde6112bc565b60200101906001600160f81b031916908160001a905350600f60fb1b81600181518110610e0d57610e0d6112bc565b60200101906001600160f81b031916908160001a9053506000610e318460026111fb565b610e3c9060016110f0565b90505b6001811115610eb4576f181899199a1a9b1b9c1cb0b131b232b360811b85600f1660108110610e7057610e706112bc565b1a60f81b828281518110610e8657610e866112bc565b60200101906001600160f81b031916908160001a90535060049490941c93610ead816112d2565b9050610e3f565b508315610f035760405162461bcd60e51b815260206004820181905260248201527f537472696e67733a20686578206c656e67746820696e73756666696369656e7460448201526064016104bc565b9392505050565b600060208284031215610f1c57600080fd5b81356001600160e01b031981168114610f0357600080fd5b60005b83811015610f4f578181015183820152602001610f37565b8381111561080b5750506000910152565b6020815260008251806020840152610f7f816040850160208701610f34565b601f01601f19169190910160400192915050565b80356001600160a01b0381168114610faa57600080fd5b919050565b60008060408385031215610fc257600080fd5b610fcb83610f93565b946020939093013593505050565b600080600060608486031215610fee57600080fd5b610ff784610f93565b925061100560208501610f93565b9150604084013590509250925092565b60006020828403121561102757600080fd5b5035919050565b6000806040838503121561104157600080fd5b8235915061105160208401610f93565b90509250929050565b60006020828403121561106c57600080fd5b610f0382610f93565b6000806040838503121561108857600080fd5b61109183610f93565b915061105160208401610f93565b600181811c908216806110b357607f821691505b602082108114156110d457634e487b7160e01b600052602260045260246000fd5b50919050565b634e487b7160e01b600052601160045260246000fd5b60008219821115611103576111036110da565b500190565b600181815b80851115611143578160001904821115611129576111296110da565b8085161561113657918102915b93841c939080029061110d565b509250929050565b60008261115a57506001610352565b8161116757506000610352565b816001811461117d5760028114611187576111a3565b6001915050610352565b60ff841115611198576111986110da565b50506001821b610352565b5060208310610133831016604e8410600b84101617156111c6575081810a610352565b6111d08383611108565b80600019048211156111e4576111e46110da565b029392505050565b6000610f0360ff84168361114b565b6000816000190483118215151615611215576112156110da565b500290565b60008282101561122c5761122c6110da565b500390565b7f416363657373436f6e74726f6c3a206163636f756e7420000000000000000000815260008351611269816017850160208801610f34565b7001034b99036b4b9b9b4b733903937b6329607d1b601791840191820152835161129a816028840160208801610f34565b01602801949350505050565b634e487b7160e01b600052604160045260246000fd5b634e487b7160e01b600052603260045260246000fd5b6000816112e1576112e16110da565b50600019019056fea2646970667358221220ec5d4c39f16106c0e9e7c55a2e2764eb2c061a55d342aa7901374d81988b61d664736f6c634300080b00339f2df0fed2c77648de5860a4cc508cd0818c85b8b8a1ab4ceeef8d981c8956a6",
  "linkReferences": {},
  "deployedLinkReferences": {}
}