{
  "_format": "hh-sol-artifact-1",
  "contractName": "Game",
  "sourceName": "contracts/Game.sol",
  "abi": [
    {
      "inputs": [
        {
          "internalType": "contract IERC20",
          "name": "tokenAddress",
          "type": "address"
        }
      ],
      "stateMutability": "nonpayable",
      "type": "constructor"
    },
    {
      "anonymous": false,
      "inputs": [
        {
          "indexed": true,
          "internalType": "contract IERC20",
          "name": "token",
          "type": "address"
        },
        {
          "indexed": false,
          "internalType": "address",
          "name": "to",
          "type": "address"
        },
        {
          "indexed": false,
          "internalType": "uint256",
          "name": "amount",
          "type": "uint256"
        }
      ],
      "name": "ERC20PaymentReleased",
      "type": "event"
    },
    {
      "anonymous": false,
      "inputs": [
        {
          "indexed": false,
          "internalType": "address",
          "name": "account",
          "type": "address"
        },
        {
          "indexed": false,
          "internalType": "uint256",
          "name": "shares",
          "type": "uint256"
        }
      ],
      "name": "PayeeAdded",
      "type": "event"
    },
    {
      "anonymous": false,
      "inputs": [
        {
          "indexed": false,
          "internalType": "address",
          "name": "from",
          "type": "address"
        },
        {
          "indexed": false,
          "internalType": "uint256",
          "name": "amount",
          "type": "uint256"
        }
      ],
      "name": "PaymentReceived",
      "type": "event"
    },
    {
      "anonymous": false,
      "inputs": [
        {
          "indexed": false,
          "internalType": "address",
          "name": "to",
          "type": "address"
        },
        {
          "indexed": false,
          "internalType": "uint256",
          "name": "amount",
          "type": "uint256"
        }
      ],
      "name": "PaymentReleased",
      "type": "event"
    },
    {
      "anonymous": false,
      "inputs": [
        {
          "indexed": true,
          "internalType": "bytes32",
          "name": "role",
          "type": "bytes32"
        },
        {
          "indexed": true,
          "internalType": "bytes32",
          "name": "previousAdminRole",
          "type": "bytes32"
        },
        {
          "indexed": true,
          "internalType": "bytes32",
          "name": "newAdminRole",
          "type": "bytes32"
        }
      ],
      "name": "RoleAdminChanged",
      "type": "event"
    },
    {
      "anonymous": false,
      "inputs": [
        {
          "indexed": true,
          "internalType": "bytes32",
          "name": "role",
          "type": "bytes32"
        },
        {
          "indexed": true,
          "internalType": "address",
          "name": "account",
          "type": "address"
        },
        {
          "indexed": true,
          "internalType": "address",
          "name": "sender",
          "type": "address"
        }
      ],
      "name": "RoleGranted",
      "type": "event"
    },
    {
      "anonymous": false,
      "inputs": [
        {
          "indexed": true,
          "internalType": "bytes32",
          "name": "role",
          "type": "bytes32"
        },
        {
          "indexed": true,
          "internalType": "address",
          "name": "account",
          "type": "address"
        },
        {
          "indexed": true,
          "internalType": "address",
          "name": "sender",
          "type": "address"
        }
      ],
      "name": "RoleRevoked",
      "type": "event"
    },
    {
      "inputs": [],
      "name": "DEFAULT_ADMIN_ROLE",
      "outputs": [
        {
          "internalType": "bytes32",
          "name": "",
          "type": "bytes32"
        }
      ],
      "stateMutability": "view",
      "type": "function"
    },
    {
      "inputs": [],
      "name": "GAME_MASTER",
      "outputs": [
        {
          "internalType": "bytes32",
          "name": "",
          "type": "bytes32"
        }
      ],
      "stateMutability": "view",
      "type": "function"
    },
    {
      "inputs": [
        {
          "internalType": "uint256",
          "name": "gameRoomNumber",
          "type": "uint256"
        },
        {
          "internalType": "string",
          "name": "cardName",
          "type": "string"
        }
      ],
      "name": "addCallingCard",
      "outputs": [
        {
          "internalType": "bool",
          "name": "",
          "type": "bool"
        }
      ],
      "stateMutability": "nonpayable",
      "type": "function"
    },
    {
      "inputs": [
        {
          "internalType": "uint256",
          "name": "gameRoomNumber",
          "type": "uint256"
        },
        {
          "internalType": "string[]",
          "name": "cards",
          "type": "string[]"
        }
      ],
      "name": "addCallingCardSet",
      "outputs": [
        {
          "internalType": "bool",
          "name": "",
          "type": "bool"
        }
      ],
      "stateMutability": "nonpayable",
      "type": "function"
    },
    {
      "inputs": [
        {
          "internalType": "uint256",
          "name": "gameRoomNumber",
          "type": "uint256"
        },
        {
          "internalType": "address",
          "name": "account",
          "type": "address"
        }
      ],
      "name": "awardWinner",
      "outputs": [],
      "stateMutability": "nonpayable",
      "type": "function"
    },
    {
      "inputs": [
        {
          "internalType": "uint256",
          "name": "gameRoomNumber",
          "type": "uint256"
        }
      ],
      "name": "getGameCards",
      "outputs": [
        {
          "internalType": "string[]",
          "name": "",
          "type": "string[]"
        }
      ],
      "stateMutability": "view",
      "type": "function"
    },
    {
      "inputs": [
        {
          "internalType": "uint256",
          "name": "gameRoomNumber",
          "type": "uint256"
        }
      ],
      "name": "getGameRoomBalance",
      "outputs": [
        {
          "internalType": "uint256",
          "name": "",
          "type": "uint256"
        }
      ],
      "stateMutability": "view",
      "type": "function"
    },
    {
      "inputs": [],
      "name": "getGameRooms",
      "outputs": [
        {
          "internalType": "uint256[]",
          "name": "",
          "type": "uint256[]"
        }
      ],
      "stateMutability": "view",
      "type": "function"
    },
    {
      "inputs": [
        {
          "internalType": "uint256",
          "name": "gameRoomNumber",
          "type": "uint256"
        }
      ],
      "name": "getGameStatus",
      "outputs": [
        {
          "internalType": "bool",
          "name": "",
          "type": "bool"
        }
      ],
      "stateMutability": "view",
      "type": "function"
    },
    {
      "inputs": [],
      "name": "getPlayers",
      "outputs": [
        {
          "components": [
            {
              "internalType": "uint256",
              "name": "gameRoomNumber",
              "type": "uint256"
            },
            {
              "internalType": "address",
              "name": "account",
              "type": "address"
            },
            {
              "internalType": "uint256",
              "name": "balance",
              "type": "uint256"
            },
            {
              "internalType": "uint256",
              "name": "tokenId",
              "type": "uint256"
            }
          ],
          "internalType": "struct Game.Position[]",
          "name": "",
          "type": "tuple[]"
        }
      ],
      "stateMutability": "view",
      "type": "function"
    },
    {
      "inputs": [
        {
          "internalType": "uint256",
          "name": "gameRoomNumber",
          "type": "uint256"
        },
        {
          "internalType": "address",
          "name": "account",
          "type": "address"
        },
        {
          "internalType": "uint256",
          "name": "tokenId",
          "type": "uint256"
        }
      ],
      "name": "getPlayersBalance",
      "outputs": [
        {
          "internalType": "uint256",
          "name": "",
          "type": "uint256"
        }
      ],
      "stateMutability": "view",
      "type": "function"
    },
    {
      "inputs": [
        {
          "internalType": "bytes32",
          "name": "role",
          "type": "bytes32"
        }
      ],
      "name": "getRoleAdmin",
      "outputs": [
        {
          "internalType": "bytes32",
          "name": "",
          "type": "bytes32"
        }
      ],
      "stateMutability": "view",
      "type": "function"
    },
    {
      "inputs": [
        {
          "internalType": "bytes32",
          "name": "role",
          "type": "bytes32"
        },
        {
          "internalType": "address",
          "name": "account",
          "type": "address"
        }
      ],
      "name": "grantRole",
      "outputs": [],
      "stateMutability": "nonpayable",
      "type": "function"
    },
    {
      "inputs": [
        {
          "internalType": "bytes32",
          "name": "role",
          "type": "bytes32"
        },
        {
          "internalType": "address",
          "name": "account",
          "type": "address"
        }
      ],
      "name": "hasRole",
      "outputs": [
        {
          "internalType": "bool",
          "name": "",
          "type": "bool"
        }
      ],
      "stateMutability": "view",
      "type": "function"
    },
    {
      "inputs": [
        {
          "internalType": "uint256",
          "name": "gameRoomNumber",
          "type": "uint256"
        },
        {
          "internalType": "uint256",
          "name": "tokenId",
          "type": "uint256"
        },
        {
          "internalType": "uint256",
          "name": "depositValue",
          "type": "uint256"
        }
      ],
      "name": "lockTokens",
      "outputs": [
        {
          "internalType": "bool",
          "name": "",
          "type": "bool"
        }
      ],
      "stateMutability": "nonpayable",
      "type": "function"
    },
    {
      "inputs": [
        {
          "internalType": "uint256",
          "name": "index",
          "type": "uint256"
        }
      ],
      "name": "payee",
      "outputs": [
        {
          "internalType": "address",
          "name": "",
          "type": "address"
        }
      ],
      "stateMutability": "view",
      "type": "function"
    },
    {
      "inputs": [
        {
          "internalType": "address",
          "name": "account",
          "type": "address"
        }
      ],
      "name": "releasable",
      "outputs": [
        {
          "internalType": "uint256",
          "name": "",
          "type": "uint256"
        }
      ],
      "stateMutability": "view",
      "type": "function"
    },
    {
      "inputs": [
        {
          "internalType": "contract IERC20",
          "name": "token",
          "type": "address"
        },
        {
          "internalType": "address",
          "name": "account",
          "type": "address"
        }
      ],
      "name": "releasable",
      "outputs": [
        {
          "internalType": "uint256",
          "name": "",
          "type": "uint256"
        }
      ],
      "stateMutability": "view",
      "type": "function"
    },
    {
      "inputs": [
        {
          "internalType": "address payable",
          "name": "account",
          "type": "address"
        }
      ],
      "name": "release",
      "outputs": [],
      "stateMutability": "nonpayable",
      "type": "function"
    },
    {
      "inputs": [
        {
          "internalType": "contract IERC20",
          "name": "token",
          "type": "address"
        },
        {
          "internalType": "address",
          "name": "account",
          "type": "address"
        }
      ],
      "name": "release",
      "outputs": [],
      "stateMutability": "nonpayable",
      "type": "function"
    },
    {
      "inputs": [
        {
          "internalType": "contract IERC20",
          "name": "token",
          "type": "address"
        },
        {
          "internalType": "address",
          "name": "account",
          "type": "address"
        }
      ],
      "name": "released",
      "outputs": [
        {
          "internalType": "uint256",
          "name": "",
          "type": "uint256"
        }
      ],
      "stateMutability": "view",
      "type": "function"
    },
    {
      "inputs": [
        {
          "internalType": "address",
          "name": "account",
          "type": "address"
        }
      ],
      "name": "released",
      "outputs": [
        {
          "internalType": "uint256",
          "name": "",
          "type": "uint256"
        }
      ],
      "stateMutability": "view",
      "type": "function"
    },
    {
      "inputs": [
        {
          "internalType": "bytes32",
          "name": "role",
          "type": "bytes32"
        },
        {
          "internalType": "address",
          "name": "account",
          "type": "address"
        }
      ],
      "name": "renounceRole",
      "outputs": [],
      "stateMutability": "nonpayable",
      "type": "function"
    },
    {
      "inputs": [
        {
          "internalType": "bytes32",
          "name": "role",
          "type": "bytes32"
        },
        {
          "internalType": "address",
          "name": "account",
          "type": "address"
        }
      ],
      "name": "revokeRole",
      "outputs": [],
      "stateMutability": "nonpayable",
      "type": "function"
    },
    {
      "inputs": [
        {
          "internalType": "address",
          "name": "account",
          "type": "address"
        }
      ],
      "name": "shares",
      "outputs": [
        {
          "internalType": "uint256",
          "name": "",
          "type": "uint256"
        }
      ],
      "stateMutability": "view",
      "type": "function"
    },
    {
      "inputs": [
        {
          "internalType": "bytes4",
          "name": "interfaceId",
          "type": "bytes4"
        }
      ],
      "name": "supportsInterface",
      "outputs": [
        {
          "internalType": "bool",
          "name": "",
          "type": "bool"
        }
      ],
      "stateMutability": "view",
      "type": "function"
    },
    {
      "inputs": [
        {
          "internalType": "contract IERC20",
          "name": "token",
          "type": "address"
        }
      ],
      "name": "totalReleased",
      "outputs": [
        {
          "internalType": "uint256",
          "name": "",
          "type": "uint256"
        }
      ],
      "stateMutability": "view",
      "type": "function"
    },
    {
      "inputs": [],
      "name": "totalReleased",
      "outputs": [
        {
          "internalType": "uint256",
          "name": "",
          "type": "uint256"
        }
      ],
      "stateMutability": "view",
      "type": "function"
    },
    {
      "inputs": [],
      "name": "totalShares",
      "outputs": [
        {
          "internalType": "uint256",
          "name": "",
          "type": "uint256"
        }
      ],
      "stateMutability": "view",
      "type": "function"
    },
    {
      "stateMutability": "payable",
      "type": "receive"
    }
  ],
  "bytecode": "0x60a060405273b4ccf44f3ed31c9a35a7833e3e84eb0215a248d960809081526200002e90600890600162000542565b506040805160208101909152606481526200004e906009906001620005ac565b503480156200005c57600080fd5b50604051620029e3380380620029e38339810160408190526200007f9162000606565b6008805480602002602001604051908101604052809291908181526020018280548015620000d757602002820191906000526020600020905b81546001600160a01b03168152600190910190602001808311620000b8575b505050505060098054806020026020016040519081016040528092919081815260200182805480156200012a57602002820191906000526020600020905b81548152602001906001019080831162000115575b50505050508051825114620001a15760405162461bcd60e51b815260206004820152603260248201527f5061796d656e7453706c69747465723a2070617965657320616e6420736861726044820152710cae640d8cadccee8d040dad2e6dac2e8c6d60731b60648201526084015b60405180910390fd5b6000825111620001f45760405162461bcd60e51b815260206004820152601a60248201527f5061796d656e7453706c69747465723a206e6f20706179656573000000000000604482015260640162000198565b60005b825181101562000260576200024b8382815181106200021a576200021a62000638565b602002602001015183838151811062000237576200023762000638565b6020026020010151620002b160201b60201c565b80620002578162000664565b915050620001f7565b5050600a80546001600160a01b0319166001600160a01b03841617905550620002aa7f3c13b5abbc85050d426f9500a16cfd9f7d94261c880b9a4e03d584d28c06059c336200049d565b506200069d565b6001600160a01b0382166200031e5760405162461bcd60e51b815260206004820152602c60248201527f5061796d656e7453706c69747465723a206163636f756e74206973207468652060448201526b7a65726f206164647265737360a01b606482015260840162000198565b60008111620003705760405162461bcd60e51b815260206004820152601d60248201527f5061796d656e7453706c69747465723a20736861726573206172652030000000604482015260640162000198565b6001600160a01b03821660009081526002602052604090205415620003ec5760405162461bcd60e51b815260206004820152602b60248201527f5061796d656e7453706c69747465723a206163636f756e7420616c726561647960448201526a206861732073686172657360a81b606482015260840162000198565b60048054600181019091557f8a35acfbc15ff81a39ae7d344fd709f28e8600b4aa8c65c6b64bfe7fe36bd19b0180546001600160a01b0319166001600160a01b0384169081179091556000908152600260205260408120829055546200045490829062000682565b600055604080516001600160a01b0384168152602081018390527f40c340f65e17194d14ddddb073d3c9f888e3cb52b5aae0c6c7706b4fbc905fac910160405180910390a15050565b60008281526007602090815260408083206001600160a01b038516845290915290205460ff166200053e5760008281526007602090815260408083206001600160a01b03851684529091529020805460ff19166001179055620004fd3390565b6001600160a01b0316816001600160a01b0316837f2f8788117e7eff1d82e926ec794901d17c78024a50270940304540a733656f0d60405160405180910390a45b5050565b8280548282559060005260206000209081019282156200059a579160200282015b828111156200059a57825182546001600160a01b0319166001600160a01b0390911617825560209092019160019091019062000563565b50620005a8929150620005ef565b5090565b8280548282559060005260206000209081019282156200059a579160200282015b828111156200059a578251829060ff16905591602001919060010190620005cd565b5b80821115620005a85760008155600101620005f0565b6000602082840312156200061957600080fd5b81516001600160a01b03811681146200063157600080fd5b9392505050565b634e487b7160e01b600052603260045260246000fd5b634e487b7160e01b600052601160045260246000fd5b60006000198214156200067b576200067b6200064e565b5060010190565b600082198211156200069857620006986200064e565b500190565b61233680620006ad6000396000f3fe6080604052600436106101c65760003560e01c8063860cbc77116100f7578063a217fddf11610095578063ce7c2ac211610064578063ce7c2ac2146105e9578063d547741f1461061f578063d79779b21461063f578063e33b7de31461067557600080fd5b8063a217fddf14610567578063a3f8eace1461057c578063b5055aae1461059c578063c45ac050146105c957600080fd5b80638b83209b116100d15780638b83209b146104a557806391d14854146104dd5780639852595c146104fd57806399597b701461053357600080fd5b8063860cbc77146104345780638b3b06fb146104615780638b5b9ccc1461048357600080fd5b806336568abe11610164578063406072a91161013e578063406072a91461038e57806348b75044146103d457806371730b5f146103f45780638586c2641461041457600080fd5b806336568abe146103395780633a98ef39146103595780633cce32e61461036e57600080fd5b806319165587116101a0578063191655871461029957806321835b31146102bb578063248a9ca3146102db5780632f2ff15d1461031957600080fd5b80630150c3271461021457806301ffc9a7146102495780630f1bf4541461026957600080fd5b3661020f577f6ef95f06320e7a25a04a175ca677b7052bdd97131872c2192525a629f51be77033604080516001600160a01b0390921682523460208301520160405180910390a1005b600080fd5b34801561022057600080fd5b5061023461022f366004611ccb565b61068a565b60405190151581526020015b60405180910390f35b34801561025557600080fd5b50610234610264366004611d12565b61072a565b34801561027557600080fd5b50610234610284366004611d3c565b6000908152600e602052604090205460ff1690565b3480156102a557600080fd5b506102b96102b4366004611d6a565b610761565b005b3480156102c757600080fd5b506102346102d6366004611d87565b610860565b3480156102e757600080fd5b5061030b6102f6366004611d3c565b60009081526007602052604090206001015490565b604051908152602001610240565b34801561032557600080fd5b506102b9610334366004611e56565b610935565b34801561034557600080fd5b506102b9610354366004611e56565b61095f565b34801561036557600080fd5b5060005461030b565b34801561037a57600080fd5b5061030b610389366004611e86565b6109dd565b34801561039a57600080fd5b5061030b6103a9366004611ebe565b6001600160a01b03918216600090815260066020908152604080832093909416825291909152205490565b3480156103e057600080fd5b506102b96103ef366004611ebe565b610ab0565b34801561040057600080fd5b506102b961040f366004611e56565b610bd0565b34801561042057600080fd5b5061023461042f366004611eec565b610d11565b34801561044057600080fd5b5061045461044f366004611d3c565b61119b565b6040516102409190611f74565b34801561046d57600080fd5b50610476611287565b6040516102409190611fd6565b34801561048f57600080fd5b506104986112df565b604051610240919061201a565b3480156104b157600080fd5b506104c56104c0366004611d3c565b611369565b6040516001600160a01b039091168152602001610240565b3480156104e957600080fd5b506102346104f8366004611e56565b611399565b34801561050957600080fd5b5061030b610518366004611d6a565b6001600160a01b031660009081526003602052604090205490565b34801561053f57600080fd5b5061030b7f3c13b5abbc85050d426f9500a16cfd9f7d94261c880b9a4e03d584d28c06059c81565b34801561057357600080fd5b5061030b600081565b34801561058857600080fd5b5061030b610597366004611d6a565b6113c4565b3480156105a857600080fd5b5061030b6105b7366004611d3c565b6000908152600d602052604090205490565b3480156105d557600080fd5b5061030b6105e4366004611ebe565b611405565b3480156105f557600080fd5b5061030b610604366004611d6a565b6001600160a01b031660009081526002602052604090205490565b34801561062b57600080fd5b506102b961063a366004611e56565b6114d0565b34801561064b57600080fd5b5061030b61065a366004611d6a565b6001600160a01b031660009081526005602052604090205490565b34801561068157600080fd5b5060015461030b565b6000828152600e602052604081205460ff166106ee576000838152600e60205260408120805460ff19166001908117909155600c805491820181559091527fdf6966c971051c3d54ec59162606531493a51404a002842f56009d7e5cf4a8c7018390555b6000838152600f6020908152604082208054600181018255908352918190208451610720939190910191850190611b7b565b5060019392505050565b60006001600160e01b03198216637965db0b60e01b148061075b57506301ffc9a760e01b6001600160e01b03198316145b92915050565b6001600160a01b03811660009081526002602052604090205461079f5760405162461bcd60e51b815260040161079690612087565b60405180910390fd5b60006107aa826113c4565b9050806107c95760405162461bcd60e51b8152600401610796906120cd565b6001600160a01b038216600090815260036020526040812080548392906107f190849061212e565b92505081905550806001600082825461080a919061212e565b9091555061081a905082826114f5565b604080516001600160a01b0384168152602081018390527fdf20fd1e76bc69d672e4814fafb2c449bba3a5369d8359adf9e05e6fde87b056910160405180910390a15050565b6000828152600e602052604081205460ff166108c4576000838152600e60205260408120805460ff19166001908117909155600c805491820181559091527fdf6966c971051c3d54ec59162606531493a51404a002842f56009d7e5cf4a8c7018390555b60005b8251811015610720576000848152600f6020526040902083518490839081106108f2576108f2612146565b602090810291909101810151825460018101845560009384529282902081516109249491909101929190910190611b7b565b5061092e8161215c565b90506108c7565b6000828152600760205260409020600101546109508161160e565b61095a838361161b565b505050565b6001600160a01b03811633146109cf5760405162461bcd60e51b815260206004820152602f60248201527f416363657373436f6e74726f6c3a2063616e206f6e6c792072656e6f756e636560448201526e103937b632b9903337b91039b2b63360891b6064820152608401610796565b6109d982826116a1565b5050565b6000805b600b54811015610aa3576000600b8281548110610a0057610a00612146565b6000918252602091829020604080516080810182526004909302909101805480845260018201546001600160a01b031694840194909452600281015491830191909152600301546060820152915086148015610a715750846001600160a01b031681602001516001600160a01b0316145b8015610a805750838160600151145b15610a9257604001519150610aa99050565b50610a9c8161215c565b90506109e1565b50600090505b9392505050565b6001600160a01b038116600090815260026020526040902054610ae55760405162461bcd60e51b815260040161079690612087565b6000610af18383611405565b905080610b105760405162461bcd60e51b8152600401610796906120cd565b6001600160a01b03808416600090815260066020908152604080832093861683529290529081208054839290610b4790849061212e565b90915550506001600160a01b03831660009081526005602052604081208054839290610b7490849061212e565b90915550610b859050838383611708565b604080516001600160a01b038481168252602082018490528516917f3be5b7a71e84ed12875d241991c70855ac5817d847039e17a9d895c1ceb0f18a910160405180910390a2505050565b610bfa7f3c13b5abbc85050d426f9500a16cfd9f7d94261c880b9a4e03d584d28c06059c33611399565b610c6c5760405162461bcd60e51b815260206004820152603c60248201527f596f7520617265206e6f7420612067616d65206d617374657220616e6420636160448201527f6e206e6f74206177617264207468652067616d652077696e6e65722e000000006064820152608401610796565b6000828152600d60205260409081902054600a54915163a9059cbb60e01b81526001600160a01b038481166004830152602482018390529192919091169063a9059cbb906044016020604051808303816000875af1158015610cd2573d6000803e3d6000fd5b505050506040513d601f19601f82011682018060405250810190610cf69190612177565b5050506000908152600e60205260409020805460ff19169055565b600a546040516370a0823160e01b815233600482015260009183916001600160a01b03909116906370a0823190602401602060405180830381865afa158015610d5e573d6000803e3d6000fd5b505050506040513d601f19601f82011682018060405250810190610d829190612199565b1015610de95760405162461bcd60e51b815260206004820152603060248201527f796f7520646f206e6f74206861766520656e6f756768206265616e7320746f2060448201526f31b7bb32b9103a3434b99031b7b9ba1760811b6064820152608401610796565b60005b600b54811015610ffd576000600b8281548110610e0b57610e0b612146565b60009182526020822060016004909202010154600b80546001600160a01b0390921693509084908110610e4057610e40612146565b90600052602060002090600402016002015490506000600b8481548110610e6957610e69612146565b90600052602060002090600402016000015490506000600b8581548110610e9257610e92612146565b60009182526020808320600360049093020191909101548b8352600d9091526040909120549091506001600160a01b03851633148015610ed15750828a145b8015610edc57508882145b8015610ee85750600084115b15610fe7576000610ef9898661212e565b90506000610f078a8461212e565b905081600b8981548110610f1d57610f1d612146565b90600052602060002090600402016002018190555080600d60008e81526020019081526020016000206000828254610f55919061212e565b9091555050600a546040516323b872dd60e01b8152336004820152306024820152604481018c90526001600160a01b03909116906323b872dd906064016020604051808303816000875af1158015610fb1573d6000803e3d6000fd5b505050506040513d601f19601f82011682018060405250810190610fd59190612177565b50600098505050505050505050610aa9565b505050505080610ff69061215c565b9050610dec565b506040805160808101825285815233602080830191909152818301859052606082018690526000878152600d90915291822080549192859261104090849061212e565b9091555050600b805460018101825560009190915281517f0175b7a638427703f0dbe7bb9bbf987a2551717b34e79f33b5b1008d1fa01db960049283029081019190915560208301517f0175b7a638427703f0dbe7bb9bbf987a2551717b34e79f33b5b1008d1fa01dba820180546001600160a01b0319166001600160a01b039283161790556040808501517f0175b7a638427703f0dbe7bb9bbf987a2551717b34e79f33b5b1008d1fa01dbb84015560608501517f0175b7a638427703f0dbe7bb9bbf987a2551717b34e79f33b5b1008d1fa01dbc90930192909255600a5491516323b872dd60e01b815233938101939093523060248401526044830186905216906323b872dd906064016020604051808303816000875af115801561116b573d6000803e3d6000fd5b505050506040513d601f19601f8201168201806040525081019061118f9190612177565b50600195945050505050565b6060600f6000838152602001908152602001600020805480602002602001604051908101604052809291908181526020016000905b8282101561127c5783829060005260206000200180546111ef906121b2565b80601f016020809104026020016040519081016040528092919081815260200182805461121b906121b2565b80156112685780601f1061123d57610100808354040283529160200191611268565b820191906000526020600020905b81548152906001019060200180831161124b57829003601f168201915b5050505050815260200190600101906111d0565b505050509050919050565b6060600c8054806020026020016040519081016040528092919081815260200182805480156112d557602002820191906000526020600020905b8154815260200190600101908083116112c1575b5050505050905090565b6060600b805480602002602001604051908101604052809291908181526020016000905b828210156113605760008481526020908190206040805160808101825260048602909201805483526001808201546001600160a01b0316848601526002820154928401929092526003015460608301529083529092019101611303565b50505050905090565b60006004828154811061137e5761137e612146565b6000918252602090912001546001600160a01b031692915050565b60009182526007602090815260408084206001600160a01b0393909316845291905290205460ff1690565b6000806113d060015490565b6113da904761212e565b9050610aa98382611400866001600160a01b031660009081526003602052604090205490565b61175a565b6001600160a01b03821660009081526005602052604081205481906040516370a0823160e01b81523060048201526001600160a01b038616906370a0823190602401602060405180830381865afa158015611464573d6000803e3d6000fd5b505050506040513d601f19601f820116820180604052508101906114889190612199565b611492919061212e565b6001600160a01b038086166000908152600660209081526040808320938816835292905220549091506114c8908490839061175a565b949350505050565b6000828152600760205260409020600101546114eb8161160e565b61095a83836116a1565b804710156115455760405162461bcd60e51b815260206004820152601d60248201527f416464726573733a20696e73756666696369656e742062616c616e63650000006044820152606401610796565b6000826001600160a01b03168260405160006040518083038185875af1925050503d8060008114611592576040519150601f19603f3d011682016040523d82523d6000602084013e611597565b606091505b505090508061095a5760405162461bcd60e51b815260206004820152603a60248201527f416464726573733a20756e61626c6520746f2073656e642076616c75652c207260448201527f6563697069656e74206d617920686176652072657665727465640000000000006064820152608401610796565b6116188133611795565b50565b6116258282611399565b6109d95760008281526007602090815260408083206001600160a01b03851684529091529020805460ff1916600117905561165d3390565b6001600160a01b0316816001600160a01b0316837f2f8788117e7eff1d82e926ec794901d17c78024a50270940304540a733656f0d60405160405180910390a45050565b6116ab8282611399565b156109d95760008281526007602090815260408083206001600160a01b0385168085529252808320805460ff1916905551339285917ff6391f5c32d9c69d2a47ea670b442974b53935d1edc7fd64eb21e047a839171b9190a45050565b604080516001600160a01b038416602482015260448082018490528251808303909101815260649091019091526020810180516001600160e01b031663a9059cbb60e01b17905261095a9084906117f9565b600080546001600160a01b03851682526002602052604082205483919061178190866121ed565b61178b919061220c565b6114c8919061222e565b61179f8282611399565b6109d9576117b7816001600160a01b031660146118cb565b6117c28360206118cb565b6040516020016117d3929190612245565b60408051601f198184030181529082905262461bcd60e51b8252610796916004016122ba565b600061184e826040518060400160405280602081526020017f5361666545524332303a206c6f772d6c6576656c2063616c6c206661696c6564815250856001600160a01b0316611a679092919063ffffffff16565b80519091501561095a578080602001905181019061186c9190612177565b61095a5760405162461bcd60e51b815260206004820152602a60248201527f5361666545524332303a204552433230206f7065726174696f6e20646964206e6044820152691bdd081cdd58d8d9595960b21b6064820152608401610796565b606060006118da8360026121ed565b6118e590600261212e565b67ffffffffffffffff8111156118fd576118fd611c14565b6040519080825280601f01601f191660200182016040528015611927576020820181803683370190505b509050600360fc1b8160008151811061194257611942612146565b60200101906001600160f81b031916908160001a905350600f60fb1b8160018151811061197157611971612146565b60200101906001600160f81b031916908160001a90535060006119958460026121ed565b6119a090600161212e565b90505b6001811115611a18576f181899199a1a9b1b9c1cb0b131b232b360811b85600f16601081106119d4576119d4612146565b1a60f81b8282815181106119ea576119ea612146565b60200101906001600160f81b031916908160001a90535060049490941c93611a11816122cd565b90506119a3565b508315610aa95760405162461bcd60e51b815260206004820181905260248201527f537472696e67733a20686578206c656e67746820696e73756666696369656e746044820152606401610796565b60606114c88484600085856001600160a01b0385163b611ac95760405162461bcd60e51b815260206004820152601d60248201527f416464726573733a2063616c6c20746f206e6f6e2d636f6e74726163740000006044820152606401610796565b600080866001600160a01b03168587604051611ae591906122e4565b60006040518083038185875af1925050503d8060008114611b22576040519150601f19603f3d011682016040523d82523d6000602084013e611b27565b606091505b5091509150611b37828286611b42565b979650505050505050565b60608315611b51575081610aa9565b825115611b615782518084602001fd5b8160405162461bcd60e51b815260040161079691906122ba565b828054611b87906121b2565b90600052602060002090601f016020900481019282611ba95760008555611bef565b82601f10611bc257805160ff1916838001178555611bef565b82800160010185558215611bef579182015b82811115611bef578251825591602001919060010190611bd4565b50611bfb929150611bff565b5090565b5b80821115611bfb5760008155600101611c00565b634e487b7160e01b600052604160045260246000fd5b604051601f8201601f1916810167ffffffffffffffff81118282101715611c5357611c53611c14565b604052919050565b600082601f830112611c6c57600080fd5b813567ffffffffffffffff811115611c8657611c86611c14565b611c99601f8201601f1916602001611c2a565b818152846020838601011115611cae57600080fd5b816020850160208301376000918101602001919091529392505050565b60008060408385031215611cde57600080fd5b82359150602083013567ffffffffffffffff811115611cfc57600080fd5b611d0885828601611c5b565b9150509250929050565b600060208284031215611d2457600080fd5b81356001600160e01b031981168114610aa957600080fd5b600060208284031215611d4e57600080fd5b5035919050565b6001600160a01b038116811461161857600080fd5b600060208284031215611d7c57600080fd5b8135610aa981611d55565b60008060408385031215611d9a57600080fd5b8235915060208084013567ffffffffffffffff80821115611dba57600080fd5b818601915086601f830112611dce57600080fd5b813581811115611de057611de0611c14565b8060051b611def858201611c2a565b918252838101850191858101908a841115611e0957600080fd5b86860192505b83831015611e4557823585811115611e275760008081fd5b611e358c89838a0101611c5b565b8352509186019190860190611e0f565b809750505050505050509250929050565b60008060408385031215611e6957600080fd5b823591506020830135611e7b81611d55565b809150509250929050565b600080600060608486031215611e9b57600080fd5b833592506020840135611ead81611d55565b929592945050506040919091013590565b60008060408385031215611ed157600080fd5b8235611edc81611d55565b91506020830135611e7b81611d55565b600080600060608486031215611f0157600080fd5b505081359360208301359350604090920135919050565b60005b83811015611f33578181015183820152602001611f1b565b83811115611f42576000848401525b50505050565b60008151808452611f60816020860160208601611f18565b601f01601f19169290920160200192915050565b6000602080830181845280855180835260408601915060408160051b870101925083870160005b82811015611fc957603f19888603018452611fb7858351611f48565b94509285019290850190600101611f9b565b5092979650505050505050565b6020808252825182820181905260009190848201906040850190845b8181101561200e57835183529284019291840191600101611ff2565b50909695505050505050565b602080825282518282018190526000919060409081850190868401855b8281101561207a57815180518552868101516001600160a01b03168786015285810151868601526060908101519085015260809093019290850190600101612037565b5091979650505050505050565b60208082526026908201527f5061796d656e7453706c69747465723a206163636f756e7420686173206e6f2060408201526573686172657360d01b606082015260800190565b6020808252602b908201527f5061796d656e7453706c69747465723a206163636f756e74206973206e6f742060408201526a191d59481c185e5b595b9d60aa1b606082015260800190565b634e487b7160e01b600052601160045260246000fd5b6000821982111561214157612141612118565b500190565b634e487b7160e01b600052603260045260246000fd5b600060001982141561217057612170612118565b5060010190565b60006020828403121561218957600080fd5b81518015158114610aa957600080fd5b6000602082840312156121ab57600080fd5b5051919050565b600181811c908216806121c657607f821691505b602082108114156121e757634e487b7160e01b600052602260045260246000fd5b50919050565b600081600019048311821515161561220757612207612118565b500290565b60008261222957634e487b7160e01b600052601260045260246000fd5b500490565b60008282101561224057612240612118565b500390565b7f416363657373436f6e74726f6c3a206163636f756e742000000000000000000081526000835161227d816017850160208801611f18565b7001034b99036b4b9b9b4b733903937b6329607d1b60179184019182015283516122ae816028840160208801611f18565b01602801949350505050565b602081526000610aa96020830184611f48565b6000816122dc576122dc612118565b506000190190565b600082516122f6818460208701611f18565b919091019291505056fea2646970667358221220d84982ed87d5bd5954cd054caebcc92af33d6bc85c244a42abcc2904f20791b964736f6c634300080b0033",
  "linkReferences": {},
  "deployedLinkReferences": {}
}