{
  "_format": "hh-sol-artifact-1",
  "contractName": "Game",
  "sourceName": "contracts/Game.sol",
  "abi": [
    {
      "inputs": [
        {
          "internalType": "contract IERC20",
          "name": "tokenAddress",
          "type": "address"
        }
      ],
      "stateMutability": "nonpayable",
      "type": "constructor"
    },
    {
      "anonymous": false,
      "inputs": [
        {
          "indexed": true,
          "internalType": "contract IERC20",
          "name": "token",
          "type": "address"
        },
        {
          "indexed": false,
          "internalType": "address",
          "name": "to",
          "type": "address"
        },
        {
          "indexed": false,
          "internalType": "uint256",
          "name": "amount",
          "type": "uint256"
        }
      ],
      "name": "ERC20PaymentReleased",
      "type": "event"
    },
    {
      "anonymous": false,
      "inputs": [
        {
          "indexed": false,
          "internalType": "address",
          "name": "account",
          "type": "address"
        },
        {
          "indexed": false,
          "internalType": "uint256",
          "name": "shares",
          "type": "uint256"
        }
      ],
      "name": "PayeeAdded",
      "type": "event"
    },
    {
      "anonymous": false,
      "inputs": [
        {
          "indexed": false,
          "internalType": "address",
          "name": "from",
          "type": "address"
        },
        {
          "indexed": false,
          "internalType": "uint256",
          "name": "amount",
          "type": "uint256"
        }
      ],
      "name": "PaymentReceived",
      "type": "event"
    },
    {
      "anonymous": false,
      "inputs": [
        {
          "indexed": false,
          "internalType": "address",
          "name": "to",
          "type": "address"
        },
        {
          "indexed": false,
          "internalType": "uint256",
          "name": "amount",
          "type": "uint256"
        }
      ],
      "name": "PaymentReleased",
      "type": "event"
    },
    {
      "anonymous": false,
      "inputs": [
        {
          "indexed": true,
          "internalType": "bytes32",
          "name": "role",
          "type": "bytes32"
        },
        {
          "indexed": true,
          "internalType": "bytes32",
          "name": "previousAdminRole",
          "type": "bytes32"
        },
        {
          "indexed": true,
          "internalType": "bytes32",
          "name": "newAdminRole",
          "type": "bytes32"
        }
      ],
      "name": "RoleAdminChanged",
      "type": "event"
    },
    {
      "anonymous": false,
      "inputs": [
        {
          "indexed": true,
          "internalType": "bytes32",
          "name": "role",
          "type": "bytes32"
        },
        {
          "indexed": true,
          "internalType": "address",
          "name": "account",
          "type": "address"
        },
        {
          "indexed": true,
          "internalType": "address",
          "name": "sender",
          "type": "address"
        }
      ],
      "name": "RoleGranted",
      "type": "event"
    },
    {
      "anonymous": false,
      "inputs": [
        {
          "indexed": true,
          "internalType": "bytes32",
          "name": "role",
          "type": "bytes32"
        },
        {
          "indexed": true,
          "internalType": "address",
          "name": "account",
          "type": "address"
        },
        {
          "indexed": true,
          "internalType": "address",
          "name": "sender",
          "type": "address"
        }
      ],
      "name": "RoleRevoked",
      "type": "event"
    },
    {
      "inputs": [],
      "name": "DEFAULT_ADMIN_ROLE",
      "outputs": [
        {
          "internalType": "bytes32",
          "name": "",
          "type": "bytes32"
        }
      ],
      "stateMutability": "view",
      "type": "function"
    },
    {
      "inputs": [],
      "name": "GAME_MASTER",
      "outputs": [
        {
          "internalType": "bytes32",
          "name": "",
          "type": "bytes32"
        }
      ],
      "stateMutability": "view",
      "type": "function"
    },
    {
      "inputs": [
        {
          "internalType": "uint256",
          "name": "gameRoomNumber",
          "type": "uint256"
        },
        {
          "internalType": "string",
          "name": "cardName",
          "type": "string"
        }
      ],
      "name": "addCallingCard",
      "outputs": [
        {
          "internalType": "bool",
          "name": "",
          "type": "bool"
        }
      ],
      "stateMutability": "nonpayable",
      "type": "function"
    },
    {
      "inputs": [
        {
          "internalType": "uint256",
          "name": "gameRoomNumber",
          "type": "uint256"
        },
        {
          "internalType": "string[]",
          "name": "cards",
          "type": "string[]"
        }
      ],
      "name": "addCallingCardSet",
      "outputs": [
        {
          "internalType": "bool",
          "name": "",
          "type": "bool"
        }
      ],
      "stateMutability": "nonpayable",
      "type": "function"
    },
    {
      "inputs": [
        {
          "internalType": "uint256",
          "name": "gameRoomNumber",
          "type": "uint256"
        },
        {
          "internalType": "address",
          "name": "account",
          "type": "address"
        }
      ],
      "name": "awardWinner",
      "outputs": [],
      "stateMutability": "nonpayable",
      "type": "function"
    },
    {
      "inputs": [
        {
          "internalType": "uint256",
          "name": "gameRoomNumber",
          "type": "uint256"
        }
      ],
      "name": "getGameCards",
      "outputs": [
        {
          "internalType": "string[]",
          "name": "",
          "type": "string[]"
        }
      ],
      "stateMutability": "view",
      "type": "function"
    },
    {
      "inputs": [
        {
          "internalType": "uint256",
          "name": "gameRoomNumber",
          "type": "uint256"
        }
      ],
      "name": "getGameRoomBalance",
      "outputs": [
        {
          "internalType": "uint256",
          "name": "",
          "type": "uint256"
        }
      ],
      "stateMutability": "view",
      "type": "function"
    },
    {
      "inputs": [],
      "name": "getGameRooms",
      "outputs": [
        {
          "internalType": "uint256[]",
          "name": "",
          "type": "uint256[]"
        }
      ],
      "stateMutability": "view",
      "type": "function"
    },
    {
      "inputs": [
        {
          "internalType": "uint256",
          "name": "gameRoomNumber",
          "type": "uint256"
        }
      ],
      "name": "getGameStatus",
      "outputs": [
        {
          "internalType": "bool",
          "name": "",
          "type": "bool"
        }
      ],
      "stateMutability": "view",
      "type": "function"
    },
    {
      "inputs": [],
      "name": "getPlayers",
      "outputs": [
        {
          "components": [
            {
              "internalType": "uint256",
              "name": "gameRoomNumber",
              "type": "uint256"
            },
            {
              "internalType": "address",
              "name": "account",
              "type": "address"
            },
            {
              "internalType": "uint256",
              "name": "balance",
              "type": "uint256"
            }
          ],
          "internalType": "struct Game.Position[]",
          "name": "",
          "type": "tuple[]"
        }
      ],
      "stateMutability": "view",
      "type": "function"
    },
    {
      "inputs": [
        {
          "internalType": "uint256",
          "name": "gameRoomNumber",
          "type": "uint256"
        },
        {
          "internalType": "address",
          "name": "account",
          "type": "address"
        }
      ],
      "name": "getPlayersBalance",
      "outputs": [
        {
          "internalType": "uint256",
          "name": "",
          "type": "uint256"
        }
      ],
      "stateMutability": "view",
      "type": "function"
    },
    {
      "inputs": [
        {
          "internalType": "bytes32",
          "name": "role",
          "type": "bytes32"
        }
      ],
      "name": "getRoleAdmin",
      "outputs": [
        {
          "internalType": "bytes32",
          "name": "",
          "type": "bytes32"
        }
      ],
      "stateMutability": "view",
      "type": "function"
    },
    {
      "inputs": [
        {
          "internalType": "bytes32",
          "name": "role",
          "type": "bytes32"
        },
        {
          "internalType": "address",
          "name": "account",
          "type": "address"
        }
      ],
      "name": "grantRole",
      "outputs": [],
      "stateMutability": "nonpayable",
      "type": "function"
    },
    {
      "inputs": [
        {
          "internalType": "bytes32",
          "name": "role",
          "type": "bytes32"
        },
        {
          "internalType": "address",
          "name": "account",
          "type": "address"
        }
      ],
      "name": "hasRole",
      "outputs": [
        {
          "internalType": "bool",
          "name": "",
          "type": "bool"
        }
      ],
      "stateMutability": "view",
      "type": "function"
    },
    {
      "inputs": [
        {
          "internalType": "uint256",
          "name": "gameRoomNumber",
          "type": "uint256"
        },
        {
          "internalType": "uint256",
          "name": "depositValue",
          "type": "uint256"
        }
      ],
      "name": "lockTokens",
      "outputs": [
        {
          "internalType": "bool",
          "name": "",
          "type": "bool"
        }
      ],
      "stateMutability": "nonpayable",
      "type": "function"
    },
    {
      "inputs": [
        {
          "internalType": "uint256",
          "name": "index",
          "type": "uint256"
        }
      ],
      "name": "payee",
      "outputs": [
        {
          "internalType": "address",
          "name": "",
          "type": "address"
        }
      ],
      "stateMutability": "view",
      "type": "function"
    },
    {
      "inputs": [
        {
          "internalType": "address",
          "name": "account",
          "type": "address"
        }
      ],
      "name": "releasable",
      "outputs": [
        {
          "internalType": "uint256",
          "name": "",
          "type": "uint256"
        }
      ],
      "stateMutability": "view",
      "type": "function"
    },
    {
      "inputs": [
        {
          "internalType": "contract IERC20",
          "name": "token",
          "type": "address"
        },
        {
          "internalType": "address",
          "name": "account",
          "type": "address"
        }
      ],
      "name": "releasable",
      "outputs": [
        {
          "internalType": "uint256",
          "name": "",
          "type": "uint256"
        }
      ],
      "stateMutability": "view",
      "type": "function"
    },
    {
      "inputs": [
        {
          "internalType": "address payable",
          "name": "account",
          "type": "address"
        }
      ],
      "name": "release",
      "outputs": [],
      "stateMutability": "nonpayable",
      "type": "function"
    },
    {
      "inputs": [
        {
          "internalType": "contract IERC20",
          "name": "token",
          "type": "address"
        },
        {
          "internalType": "address",
          "name": "account",
          "type": "address"
        }
      ],
      "name": "release",
      "outputs": [],
      "stateMutability": "nonpayable",
      "type": "function"
    },
    {
      "inputs": [
        {
          "internalType": "contract IERC20",
          "name": "token",
          "type": "address"
        },
        {
          "internalType": "address",
          "name": "account",
          "type": "address"
        }
      ],
      "name": "released",
      "outputs": [
        {
          "internalType": "uint256",
          "name": "",
          "type": "uint256"
        }
      ],
      "stateMutability": "view",
      "type": "function"
    },
    {
      "inputs": [
        {
          "internalType": "address",
          "name": "account",
          "type": "address"
        }
      ],
      "name": "released",
      "outputs": [
        {
          "internalType": "uint256",
          "name": "",
          "type": "uint256"
        }
      ],
      "stateMutability": "view",
      "type": "function"
    },
    {
      "inputs": [
        {
          "internalType": "bytes32",
          "name": "role",
          "type": "bytes32"
        },
        {
          "internalType": "address",
          "name": "account",
          "type": "address"
        }
      ],
      "name": "renounceRole",
      "outputs": [],
      "stateMutability": "nonpayable",
      "type": "function"
    },
    {
      "inputs": [
        {
          "internalType": "bytes32",
          "name": "role",
          "type": "bytes32"
        },
        {
          "internalType": "address",
          "name": "account",
          "type": "address"
        }
      ],
      "name": "revokeRole",
      "outputs": [],
      "stateMutability": "nonpayable",
      "type": "function"
    },
    {
      "inputs": [
        {
          "internalType": "address",
          "name": "account",
          "type": "address"
        }
      ],
      "name": "shares",
      "outputs": [
        {
          "internalType": "uint256",
          "name": "",
          "type": "uint256"
        }
      ],
      "stateMutability": "view",
      "type": "function"
    },
    {
      "inputs": [
        {
          "internalType": "bytes4",
          "name": "interfaceId",
          "type": "bytes4"
        }
      ],
      "name": "supportsInterface",
      "outputs": [
        {
          "internalType": "bool",
          "name": "",
          "type": "bool"
        }
      ],
      "stateMutability": "view",
      "type": "function"
    },
    {
      "inputs": [
        {
          "internalType": "contract IERC20",
          "name": "token",
          "type": "address"
        }
      ],
      "name": "totalReleased",
      "outputs": [
        {
          "internalType": "uint256",
          "name": "",
          "type": "uint256"
        }
      ],
      "stateMutability": "view",
      "type": "function"
    },
    {
      "inputs": [],
      "name": "totalReleased",
      "outputs": [
        {
          "internalType": "uint256",
          "name": "",
          "type": "uint256"
        }
      ],
      "stateMutability": "view",
      "type": "function"
    },
    {
      "inputs": [],
      "name": "totalShares",
      "outputs": [
        {
          "internalType": "uint256",
          "name": "",
          "type": "uint256"
        }
      ],
      "stateMutability": "view",
      "type": "function"
    },
    {
      "stateMutability": "payable",
      "type": "receive"
    }
  ],
  "bytecode": "0x60a060405273b4ccf44f3ed31c9a35a7833e3e84eb0215a248d960809081526200002e90600890600162000542565b506040805160208101909152606481526200004e906009906001620005ac565b503480156200005c57600080fd5b50604051620028d5380380620028d58339810160408190526200007f9162000606565b6008805480602002602001604051908101604052809291908181526020018280548015620000d757602002820191906000526020600020905b81546001600160a01b03168152600190910190602001808311620000b8575b505050505060098054806020026020016040519081016040528092919081815260200182805480156200012a57602002820191906000526020600020905b81548152602001906001019080831162000115575b50505050508051825114620001a15760405162461bcd60e51b815260206004820152603260248201527f5061796d656e7453706c69747465723a2070617965657320616e6420736861726044820152710cae640d8cadccee8d040dad2e6dac2e8c6d60731b60648201526084015b60405180910390fd5b6000825111620001f45760405162461bcd60e51b815260206004820152601a60248201527f5061796d656e7453706c69747465723a206e6f20706179656573000000000000604482015260640162000198565b60005b825181101562000260576200024b8382815181106200021a576200021a62000638565b602002602001015183838151811062000237576200023762000638565b6020026020010151620002b160201b60201c565b80620002578162000664565b915050620001f7565b5050600a80546001600160a01b0319166001600160a01b03841617905550620002aa7f3c13b5abbc85050d426f9500a16cfd9f7d94261c880b9a4e03d584d28c06059c336200049d565b506200069d565b6001600160a01b0382166200031e5760405162461bcd60e51b815260206004820152602c60248201527f5061796d656e7453706c69747465723a206163636f756e74206973207468652060448201526b7a65726f206164647265737360a01b606482015260840162000198565b60008111620003705760405162461bcd60e51b815260206004820152601d60248201527f5061796d656e7453706c69747465723a20736861726573206172652030000000604482015260640162000198565b6001600160a01b03821660009081526002602052604090205415620003ec5760405162461bcd60e51b815260206004820152602b60248201527f5061796d656e7453706c69747465723a206163636f756e7420616c726561647960448201526a206861732073686172657360a81b606482015260840162000198565b60048054600181019091557f8a35acfbc15ff81a39ae7d344fd709f28e8600b4aa8c65c6b64bfe7fe36bd19b0180546001600160a01b0319166001600160a01b0384169081179091556000908152600260205260408120829055546200045490829062000682565b600055604080516001600160a01b0384168152602081018390527f40c340f65e17194d14ddddb073d3c9f888e3cb52b5aae0c6c7706b4fbc905fac910160405180910390a15050565b60008281526007602090815260408083206001600160a01b038516845290915290205460ff166200053e5760008281526007602090815260408083206001600160a01b03851684529091529020805460ff19166001179055620004fd3390565b6001600160a01b0316816001600160a01b0316837f2f8788117e7eff1d82e926ec794901d17c78024a50270940304540a733656f0d60405160405180910390a45b5050565b8280548282559060005260206000209081019282156200059a579160200282015b828111156200059a57825182546001600160a01b0319166001600160a01b0390911617825560209092019160019091019062000563565b50620005a8929150620005ef565b5090565b8280548282559060005260206000209081019282156200059a579160200282015b828111156200059a578251829060ff16905591602001919060010190620005cd565b5b80821115620005a85760008155600101620005f0565b6000602082840312156200061957600080fd5b81516001600160a01b03811681146200063157600080fd5b9392505050565b634e487b7160e01b600052603260045260246000fd5b634e487b7160e01b600052601160045260246000fd5b60006000198214156200067b576200067b6200064e565b5060010190565b600082198211156200069857620006986200064e565b500190565b61222880620006ad6000396000f3fe6080604052600436106101c65760003560e01c80638b3b06fb116100f7578063a217fddf11610095578063ce7c2ac211610064578063ce7c2ac2146105e9578063d547741f1461061f578063d79779b21461063f578063e33b7de31461067557600080fd5b8063a217fddf14610567578063a3f8eace1461057c578063b5055aae1461059c578063c45ac050146105c957600080fd5b806391d14854116100d157806391d14854146104bd57806396d918bb146104dd5780639852595c146104fd57806399597b701461053357600080fd5b80638b3b06fb146104415780638b5b9ccc146104635780638b83209b1461048557600080fd5b806336568abe1161016457806348b750441161013e57806348b75044146103b457806371730b5f146103d4578063860cbc77146103f457806389158d8e1461042157600080fd5b806336568abe146103395780633a98ef3914610359578063406072a91461036e57600080fd5b806319165587116101a0578063191655871461029957806321835b31146102bb578063248a9ca3146102db5780632f2ff15d1461031957600080fd5b80630150c3271461021457806301ffc9a7146102495780630f1bf4541461026957600080fd5b3661020f577f6ef95f06320e7a25a04a175ca677b7052bdd97131872c2192525a629f51be77033604080516001600160a01b0390921682523460208301520160405180910390a1005b600080fd5b34801561022057600080fd5b5061023461022f366004611c0a565b61068a565b60405190151581526020015b60405180910390f35b34801561025557600080fd5b50610234610264366004611c51565b61072c565b34801561027557600080fd5b50610234610284366004611c7b565b6000908152600e602052604090205460ff1690565b3480156102a557600080fd5b506102b96102b4366004611ca9565b610761565b005b3480156102c757600080fd5b506102346102d6366004611cc6565b610860565b3480156102e757600080fd5b5061030b6102f6366004611c7b565b60009081526007602052604090206001015490565b604051908152602001610240565b34801561032557600080fd5b506102b9610334366004611d95565b610935565b34801561034557600080fd5b506102b9610354366004611d95565b61095f565b34801561036557600080fd5b5060005461030b565b34801561037a57600080fd5b5061030b610389366004611dc5565b6001600160a01b03918216600090815260066020908152604080832093909416825291909152205490565b3480156103c057600080fd5b506102b96103cf366004611dc5565b6109dd565b3480156103e057600080fd5b506102b96103ef366004611d95565b610afd565b34801561040057600080fd5b5061041461040f366004611c7b565b610c3e565b6040516102409190611e4f565b34801561042d57600080fd5b5061023461043c366004611eb1565b610d2a565b34801561044d57600080fd5b50610456611113565b6040516102409190611ed3565b34801561046f57600080fd5b5061047861116b565b6040516102409190611f17565b34801561049157600080fd5b506104a56104a0366004611c7b565b6111ed565b6040516001600160a01b039091168152602001610240565b3480156104c957600080fd5b506102346104d8366004611d95565b61121d565b3480156104e957600080fd5b5061030b6104f8366004611d95565b611248565b34801561050957600080fd5b5061030b610518366004611ca9565b6001600160a01b031660009081526003602052604090205490565b34801561053f57600080fd5b5061030b7f3c13b5abbc85050d426f9500a16cfd9f7d94261c880b9a4e03d584d28c06059c81565b34801561057357600080fd5b5061030b600081565b34801561058857600080fd5b5061030b610597366004611ca9565b6112fc565b3480156105a857600080fd5b5061030b6105b7366004611c7b565b6000908152600d602052604090205490565b3480156105d557600080fd5b5061030b6105e4366004611dc5565b611344565b3480156105f557600080fd5b5061030b610604366004611ca9565b6001600160a01b031660009081526002602052604090205490565b34801561062b57600080fd5b506102b961063a366004611d95565b61140f565b34801561064b57600080fd5b5061030b61065a366004611ca9565b6001600160a01b031660009081526005602052604090205490565b34801561068157600080fd5b5060015461030b565b6000828152600e602052604081205460ff166106ee576000838152600e60205260408120805460ff19166001908117909155600c805491820181559091527fdf6966c971051c3d54ec59162606531493a51404a002842f56009d7e5cf4a8c7018390555b6000838152600f6020908152604082208054600181018255908352918190208451610720939190910191850190611aba565b50600190505b92915050565b60006001600160e01b03198216637965db0b60e01b148061072657506301ffc9a760e01b6001600160e01b0319831614610726565b6001600160a01b03811660009081526002602052604090205461079f5760405162461bcd60e51b815260040161079690611f79565b60405180910390fd5b60006107aa826112fc565b9050806107c95760405162461bcd60e51b815260040161079690611fbf565b6001600160a01b038216600090815260036020526040812080548392906107f1908490612020565b92505081905550806001600082825461080a9190612020565b9091555061081a90508282611434565b604080516001600160a01b0384168152602081018390527fdf20fd1e76bc69d672e4814fafb2c449bba3a5369d8359adf9e05e6fde87b056910160405180910390a15050565b6000828152600e602052604081205460ff166108c4576000838152600e60205260408120805460ff19166001908117909155600c805491820181559091527fdf6966c971051c3d54ec59162606531493a51404a002842f56009d7e5cf4a8c7018390555b60005b8251811015610720576000848152600f6020526040902083518490839081106108f2576108f2612038565b602090810291909101810151825460018101845560009384529282902081516109249491909101929190910190611aba565b5061092e8161204e565b90506108c7565b6000828152600760205260409020600101546109508161154d565b61095a838361155a565b505050565b6001600160a01b03811633146109cf5760405162461bcd60e51b815260206004820152602f60248201527f416363657373436f6e74726f6c3a2063616e206f6e6c792072656e6f756e636560448201526e103937b632b9903337b91039b2b63360891b6064820152608401610796565b6109d982826115e0565b5050565b6001600160a01b038116600090815260026020526040902054610a125760405162461bcd60e51b815260040161079690611f79565b6000610a1e8383611344565b905080610a3d5760405162461bcd60e51b815260040161079690611fbf565b6001600160a01b03808416600090815260066020908152604080832093861683529290529081208054839290610a74908490612020565b90915550506001600160a01b03831660009081526005602052604081208054839290610aa1908490612020565b90915550610ab29050838383611647565b604080516001600160a01b038481168252602082018490528516917f3be5b7a71e84ed12875d241991c70855ac5817d847039e17a9d895c1ceb0f18a910160405180910390a2505050565b610b277f3c13b5abbc85050d426f9500a16cfd9f7d94261c880b9a4e03d584d28c06059c3361121d565b610b995760405162461bcd60e51b815260206004820152603c60248201527f596f7520617265206e6f7420612067616d65206d617374657220616e6420636160448201527f6e206e6f74206177617264207468652067616d652077696e6e65722e000000006064820152608401610796565b6000828152600d60205260409081902054600a54915163a9059cbb60e01b81526001600160a01b038481166004830152602482018390529192919091169063a9059cbb906044016020604051808303816000875af1158015610bff573d6000803e3d6000fd5b505050506040513d601f19601f82011682018060405250810190610c239190612069565b5050506000908152600e60205260409020805460ff19169055565b6060600f6000838152602001908152602001600020805480602002602001604051908101604052809291908181526020016000905b82821015610d1f578382906000526020600020018054610c929061208b565b80601f0160208091040260200160405190810160405280929190818152602001828054610cbe9061208b565b8015610d0b5780601f10610ce057610100808354040283529160200191610d0b565b820191906000526020600020905b815481529060010190602001808311610cee57829003601f168201915b505050505081526020019060010190610c73565b505050509050919050565b600a546040516370a0823160e01b815233600482015260009183916001600160a01b03909116906370a0823190602401602060405180830381865afa158015610d77573d6000803e3d6000fd5b505050506040513d601f19601f82011682018060405250810190610d9b91906120c6565b1015610e025760405162461bcd60e51b815260206004820152603060248201527f796f7520646f206e6f74206861766520656e6f756768206265616e7320746f2060448201526f31b7bb32b9103a3434b99031b7b9ba1760811b6064820152608401610796565b60005b600b54811015610faa576000600b8281548110610e2457610e24612038565b60009182526020822060016003909202010154600b80546001600160a01b0390921693509084908110610e5957610e59612038565b6000918252602080832060026003909302019190910154888352600d9091526040909120549091506001600160a01b03831633148015610e995750600082115b15610f96576000610eaa8784612020565b90506000610eb88884612020565b905081600b8781548110610ece57610ece612038565b90600052602060002090600302016002018190555080600d60008b81526020019081526020016000206000828254610f069190612020565b9091555050600a546040516323b872dd60e01b8152336004820152306024820152604481018a90526001600160a01b03909116906323b872dd906064016020604051808303816000875af1158015610f62573d6000803e3d6000fd5b505050506040513d601f19601f82011682018060405250810190610f869190612069565b5060009650505050505050610726565b50505080610fa39061204e565b9050610e05565b5060408051606081018252848152336020808301919091528183018590526000868152600d909152918220805491928592610fe6908490612020565b9091555050600b805460018101825560009190915281517f0175b7a638427703f0dbe7bb9bbf987a2551717b34e79f33b5b1008d1fa01db960039092029182015560208201517f0175b7a638427703f0dbe7bb9bbf987a2551717b34e79f33b5b1008d1fa01dba820180546001600160a01b0319166001600160a01b039283161790556040808401517f0175b7a638427703f0dbe7bb9bbf987a2551717b34e79f33b5b1008d1fa01dbb90930192909255600a5491516323b872dd60e01b8152336004820152306024820152604481018690529116906323b872dd906064016020604051808303816000875af11580156110e4573d6000803e3d6000fd5b505050506040513d601f19601f820116820180604052508101906111089190612069565b506001949350505050565b6060600c80548060200260200160405190810160405280929190818152602001828054801561116157602002820191906000526020600020905b81548152602001906001019080831161114d575b5050505050905090565b6060600b805480602002602001604051908101604052809291908181526020016000905b828210156111e45760008481526020908190206040805160608101825260038602909201805483526001808201546001600160a01b03168486015260029091015491830191909152908352909201910161118f565b50505050905090565b60006004828154811061120257611202612038565b6000918252602090912001546001600160a01b031692915050565b60009182526007602090815260408084206001600160a01b0393909316845291905290205460ff1690565b6000805b600b548110156112f2576000600b828154811061126b5761126b612038565b6000918252602091829020604080516060810182526003909302909101805480845260018201546001600160a01b03169484019490945260020154908201529150851480156112cf5750836001600160a01b031681602001516001600160a01b0316145b156112e1576040015191506107269050565b506112eb8161204e565b905061124c565b5060009392505050565b60008061130860015490565b6113129047612020565b905061133d8382611338866001600160a01b031660009081526003602052604090205490565b611699565b9392505050565b6001600160a01b03821660009081526005602052604081205481906040516370a0823160e01b81523060048201526001600160a01b038616906370a0823190602401602060405180830381865afa1580156113a3573d6000803e3d6000fd5b505050506040513d601f19601f820116820180604052508101906113c791906120c6565b6113d19190612020565b6001600160a01b038086166000908152600660209081526040808320938816835292905220549091506114079084908390611699565b949350505050565b60008281526007602052604090206001015461142a8161154d565b61095a83836115e0565b804710156114845760405162461bcd60e51b815260206004820152601d60248201527f416464726573733a20696e73756666696369656e742062616c616e63650000006044820152606401610796565b6000826001600160a01b03168260405160006040518083038185875af1925050503d80600081146114d1576040519150601f19603f3d011682016040523d82523d6000602084013e6114d6565b606091505b505090508061095a5760405162461bcd60e51b815260206004820152603a60248201527f416464726573733a20756e61626c6520746f2073656e642076616c75652c207260448201527f6563697069656e74206d617920686176652072657665727465640000000000006064820152608401610796565b61155781336116d4565b50565b611564828261121d565b6109d95760008281526007602090815260408083206001600160a01b03851684529091529020805460ff1916600117905561159c3390565b6001600160a01b0316816001600160a01b0316837f2f8788117e7eff1d82e926ec794901d17c78024a50270940304540a733656f0d60405160405180910390a45050565b6115ea828261121d565b156109d95760008281526007602090815260408083206001600160a01b0385168085529252808320805460ff1916905551339285917ff6391f5c32d9c69d2a47ea670b442974b53935d1edc7fd64eb21e047a839171b9190a45050565b604080516001600160a01b038416602482015260448082018490528251808303909101815260649091019091526020810180516001600160e01b031663a9059cbb60e01b17905261095a908490611738565b600080546001600160a01b0385168252600260205260408220548391906116c090866120df565b6116ca91906120fe565b6114079190612120565b6116de828261121d565b6109d9576116f6816001600160a01b0316601461180a565b61170183602061180a565b604051602001611712929190612137565b60408051601f198184030181529082905262461bcd60e51b8252610796916004016121ac565b600061178d826040518060400160405280602081526020017f5361666545524332303a206c6f772d6c6576656c2063616c6c206661696c6564815250856001600160a01b03166119a69092919063ffffffff16565b80519091501561095a57808060200190518101906117ab9190612069565b61095a5760405162461bcd60e51b815260206004820152602a60248201527f5361666545524332303a204552433230206f7065726174696f6e20646964206e6044820152691bdd081cdd58d8d9595960b21b6064820152608401610796565b606060006118198360026120df565b611824906002612020565b67ffffffffffffffff81111561183c5761183c611b53565b6040519080825280601f01601f191660200182016040528015611866576020820181803683370190505b509050600360fc1b8160008151811061188157611881612038565b60200101906001600160f81b031916908160001a905350600f60fb1b816001815181106118b0576118b0612038565b60200101906001600160f81b031916908160001a90535060006118d48460026120df565b6118df906001612020565b90505b6001811115611957576f181899199a1a9b1b9c1cb0b131b232b360811b85600f166010811061191357611913612038565b1a60f81b82828151811061192957611929612038565b60200101906001600160f81b031916908160001a90535060049490941c93611950816121bf565b90506118e2565b50831561133d5760405162461bcd60e51b815260206004820181905260248201527f537472696e67733a20686578206c656e67746820696e73756666696369656e746044820152606401610796565b60606114078484600085856001600160a01b0385163b611a085760405162461bcd60e51b815260206004820152601d60248201527f416464726573733a2063616c6c20746f206e6f6e2d636f6e74726163740000006044820152606401610796565b600080866001600160a01b03168587604051611a2491906121d6565b60006040518083038185875af1925050503d8060008114611a61576040519150601f19603f3d011682016040523d82523d6000602084013e611a66565b606091505b5091509150611a76828286611a81565b979650505050505050565b60608315611a9057508161133d565b825115611aa05782518084602001fd5b8160405162461bcd60e51b815260040161079691906121ac565b828054611ac69061208b565b90600052602060002090601f016020900481019282611ae85760008555611b2e565b82601f10611b0157805160ff1916838001178555611b2e565b82800160010185558215611b2e579182015b82811115611b2e578251825591602001919060010190611b13565b50611b3a929150611b3e565b5090565b5b80821115611b3a5760008155600101611b3f565b634e487b7160e01b600052604160045260246000fd5b604051601f8201601f1916810167ffffffffffffffff81118282101715611b9257611b92611b53565b604052919050565b600082601f830112611bab57600080fd5b813567ffffffffffffffff811115611bc557611bc5611b53565b611bd8601f8201601f1916602001611b69565b818152846020838601011115611bed57600080fd5b816020850160208301376000918101602001919091529392505050565b60008060408385031215611c1d57600080fd5b82359150602083013567ffffffffffffffff811115611c3b57600080fd5b611c4785828601611b9a565b9150509250929050565b600060208284031215611c6357600080fd5b81356001600160e01b03198116811461133d57600080fd5b600060208284031215611c8d57600080fd5b5035919050565b6001600160a01b038116811461155757600080fd5b600060208284031215611cbb57600080fd5b813561133d81611c94565b60008060408385031215611cd957600080fd5b8235915060208084013567ffffffffffffffff80821115611cf957600080fd5b818601915086601f830112611d0d57600080fd5b813581811115611d1f57611d1f611b53565b8060051b611d2e858201611b69565b918252838101850191858101908a841115611d4857600080fd5b86860192505b83831015611d8457823585811115611d665760008081fd5b611d748c89838a0101611b9a565b8352509186019190860190611d4e565b809750505050505050509250929050565b60008060408385031215611da857600080fd5b823591506020830135611dba81611c94565b809150509250929050565b60008060408385031215611dd857600080fd5b8235611de381611c94565b91506020830135611dba81611c94565b60005b83811015611e0e578181015183820152602001611df6565b83811115611e1d576000848401525b50505050565b60008151808452611e3b816020860160208601611df3565b601f01601f19169290920160200192915050565b6000602080830181845280855180835260408601915060408160051b870101925083870160005b82811015611ea457603f19888603018452611e92858351611e23565b94509285019290850190600101611e76565b5092979650505050505050565b60008060408385031215611ec457600080fd5b50508035926020909101359150565b6020808252825182820181905260009190848201906040850190845b81811015611f0b57835183529284019291840191600101611eef565b50909695505050505050565b602080825282518282018190526000919060409081850190868401855b82811015611f6c57815180518552868101516001600160a01b0316878601528501518585015260609093019290850190600101611f34565b5091979650505050505050565b60208082526026908201527f5061796d656e7453706c69747465723a206163636f756e7420686173206e6f2060408201526573686172657360d01b606082015260800190565b6020808252602b908201527f5061796d656e7453706c69747465723a206163636f756e74206973206e6f742060408201526a191d59481c185e5b595b9d60aa1b606082015260800190565b634e487b7160e01b600052601160045260246000fd5b600082198211156120335761203361200a565b500190565b634e487b7160e01b600052603260045260246000fd5b60006000198214156120625761206261200a565b5060010190565b60006020828403121561207b57600080fd5b8151801515811461133d57600080fd5b600181811c9082168061209f57607f821691505b602082108114156120c057634e487b7160e01b600052602260045260246000fd5b50919050565b6000602082840312156120d857600080fd5b5051919050565b60008160001904831182151516156120f9576120f961200a565b500290565b60008261211b57634e487b7160e01b600052601260045260246000fd5b500490565b6000828210156121325761213261200a565b500390565b7f416363657373436f6e74726f6c3a206163636f756e742000000000000000000081526000835161216f816017850160208801611df3565b7001034b99036b4b9b9b4b733903937b6329607d1b60179184019182015283516121a0816028840160208801611df3565b01602801949350505050565b60208152600061133d6020830184611e23565b6000816121ce576121ce61200a565b506000190190565b600082516121e8818460208701611df3565b919091019291505056fea2646970667358221220e1d5b01671c516967c9440d172cf254feafa1f92ea5cf82f4226279e9a1c174564736f6c634300080b0033",
  "linkReferences": {},
  "deployedLinkReferences": {}
}