{
  "_format": "hh-sol-artifact-1",
  "contractName": "Loteria",
  "sourceName": "contracts/Loteria.sol",
  "abi": [
    {
      "inputs": [
        {
          "internalType": "address",
          "name": "_communityWallet",
          "type": "address"
        }
      ],
      "stateMutability": "nonpayable",
      "type": "constructor"
    },
    {
      "anonymous": false,
      "inputs": [
        {
          "indexed": true,
          "internalType": "address",
          "name": "owner",
          "type": "address"
        },
        {
          "indexed": true,
          "internalType": "address",
          "name": "approved",
          "type": "address"
        },
        {
          "indexed": true,
          "internalType": "uint256",
          "name": "tokenId",
          "type": "uint256"
        }
      ],
      "name": "Approval",
      "type": "event"
    },
    {
      "anonymous": false,
      "inputs": [
        {
          "indexed": true,
          "internalType": "address",
          "name": "owner",
          "type": "address"
        },
        {
          "indexed": true,
          "internalType": "address",
          "name": "operator",
          "type": "address"
        },
        {
          "indexed": false,
          "internalType": "bool",
          "name": "approved",
          "type": "bool"
        }
      ],
      "name": "ApprovalForAll",
      "type": "event"
    },
    {
      "anonymous": false,
      "inputs": [
        {
          "indexed": true,
          "internalType": "bytes32",
          "name": "role",
          "type": "bytes32"
        },
        {
          "indexed": true,
          "internalType": "bytes32",
          "name": "previousAdminRole",
          "type": "bytes32"
        },
        {
          "indexed": true,
          "internalType": "bytes32",
          "name": "newAdminRole",
          "type": "bytes32"
        }
      ],
      "name": "RoleAdminChanged",
      "type": "event"
    },
    {
      "anonymous": false,
      "inputs": [
        {
          "indexed": true,
          "internalType": "bytes32",
          "name": "role",
          "type": "bytes32"
        },
        {
          "indexed": true,
          "internalType": "address",
          "name": "account",
          "type": "address"
        },
        {
          "indexed": true,
          "internalType": "address",
          "name": "sender",
          "type": "address"
        }
      ],
      "name": "RoleGranted",
      "type": "event"
    },
    {
      "anonymous": false,
      "inputs": [
        {
          "indexed": true,
          "internalType": "bytes32",
          "name": "role",
          "type": "bytes32"
        },
        {
          "indexed": true,
          "internalType": "address",
          "name": "account",
          "type": "address"
        },
        {
          "indexed": true,
          "internalType": "address",
          "name": "sender",
          "type": "address"
        }
      ],
      "name": "RoleRevoked",
      "type": "event"
    },
    {
      "anonymous": false,
      "inputs": [
        {
          "indexed": true,
          "internalType": "address",
          "name": "from",
          "type": "address"
        },
        {
          "indexed": true,
          "internalType": "address",
          "name": "to",
          "type": "address"
        },
        {
          "indexed": true,
          "internalType": "uint256",
          "name": "tokenId",
          "type": "uint256"
        }
      ],
      "name": "Transfer",
      "type": "event"
    },
    {
      "inputs": [],
      "name": "DEFAULT_ADMIN_ROLE",
      "outputs": [
        {
          "internalType": "bytes32",
          "name": "",
          "type": "bytes32"
        }
      ],
      "stateMutability": "view",
      "type": "function"
    },
    {
      "inputs": [],
      "name": "MINTER_ROLE",
      "outputs": [
        {
          "internalType": "bytes32",
          "name": "",
          "type": "bytes32"
        }
      ],
      "stateMutability": "view",
      "type": "function"
    },
    {
      "inputs": [
        {
          "internalType": "address",
          "name": "to",
          "type": "address"
        },
        {
          "internalType": "uint256",
          "name": "tokenId",
          "type": "uint256"
        }
      ],
      "name": "approve",
      "outputs": [],
      "stateMutability": "nonpayable",
      "type": "function"
    },
    {
      "inputs": [
        {
          "internalType": "address",
          "name": "owner",
          "type": "address"
        }
      ],
      "name": "balanceOf",
      "outputs": [
        {
          "internalType": "uint256",
          "name": "",
          "type": "uint256"
        }
      ],
      "stateMutability": "view",
      "type": "function"
    },
    {
      "inputs": [],
      "name": "currentCounter",
      "outputs": [
        {
          "internalType": "uint256",
          "name": "",
          "type": "uint256"
        }
      ],
      "stateMutability": "view",
      "type": "function"
    },
    {
      "inputs": [],
      "name": "currentPrice",
      "outputs": [
        {
          "internalType": "uint256",
          "name": "",
          "type": "uint256"
        }
      ],
      "stateMutability": "view",
      "type": "function"
    },
    {
      "inputs": [
        {
          "internalType": "uint256",
          "name": "tokenId",
          "type": "uint256"
        }
      ],
      "name": "getApproved",
      "outputs": [
        {
          "internalType": "address",
          "name": "",
          "type": "address"
        }
      ],
      "stateMutability": "view",
      "type": "function"
    },
    {
      "inputs": [
        {
          "internalType": "bytes32",
          "name": "role",
          "type": "bytes32"
        }
      ],
      "name": "getRoleAdmin",
      "outputs": [
        {
          "internalType": "bytes32",
          "name": "",
          "type": "bytes32"
        }
      ],
      "stateMutability": "view",
      "type": "function"
    },
    {
      "inputs": [
        {
          "internalType": "bytes32",
          "name": "role",
          "type": "bytes32"
        },
        {
          "internalType": "address",
          "name": "account",
          "type": "address"
        }
      ],
      "name": "grantRole",
      "outputs": [],
      "stateMutability": "nonpayable",
      "type": "function"
    },
    {
      "inputs": [
        {
          "internalType": "bytes32",
          "name": "role",
          "type": "bytes32"
        },
        {
          "internalType": "address",
          "name": "account",
          "type": "address"
        }
      ],
      "name": "hasRole",
      "outputs": [
        {
          "internalType": "bool",
          "name": "",
          "type": "bool"
        }
      ],
      "stateMutability": "view",
      "type": "function"
    },
    {
      "inputs": [
        {
          "internalType": "address",
          "name": "owner",
          "type": "address"
        },
        {
          "internalType": "address",
          "name": "operator",
          "type": "address"
        }
      ],
      "name": "isApprovedForAll",
      "outputs": [
        {
          "internalType": "bool",
          "name": "",
          "type": "bool"
        }
      ],
      "stateMutability": "view",
      "type": "function"
    },
    {
      "inputs": [
        {
          "internalType": "address",
          "name": "to",
          "type": "address"
        },
        {
          "internalType": "string",
          "name": "uri",
          "type": "string"
        }
      ],
      "name": "mint",
      "outputs": [],
      "stateMutability": "payable",
      "type": "function"
    },
    {
      "inputs": [],
      "name": "name",
      "outputs": [
        {
          "internalType": "string",
          "name": "",
          "type": "string"
        }
      ],
      "stateMutability": "view",
      "type": "function"
    },
    {
      "inputs": [
        {
          "internalType": "uint256",
          "name": "tokenId",
          "type": "uint256"
        }
      ],
      "name": "ownerOf",
      "outputs": [
        {
          "internalType": "address",
          "name": "",
          "type": "address"
        }
      ],
      "stateMutability": "view",
      "type": "function"
    },
    {
      "inputs": [
        {
          "internalType": "bytes32",
          "name": "role",
          "type": "bytes32"
        },
        {
          "internalType": "address",
          "name": "account",
          "type": "address"
        }
      ],
      "name": "renounceRole",
      "outputs": [],
      "stateMutability": "nonpayable",
      "type": "function"
    },
    {
      "inputs": [
        {
          "internalType": "bytes32",
          "name": "role",
          "type": "bytes32"
        },
        {
          "internalType": "address",
          "name": "account",
          "type": "address"
        }
      ],
      "name": "revokeRole",
      "outputs": [],
      "stateMutability": "nonpayable",
      "type": "function"
    },
    {
      "inputs": [
        {
          "internalType": "uint256",
          "name": "_tokenId",
          "type": "uint256"
        },
        {
          "internalType": "uint256",
          "name": "_salePrice",
          "type": "uint256"
        }
      ],
      "name": "royaltyInfo",
      "outputs": [
        {
          "internalType": "address",
          "name": "",
          "type": "address"
        },
        {
          "internalType": "uint256",
          "name": "",
          "type": "uint256"
        }
      ],
      "stateMutability": "view",
      "type": "function"
    },
    {
      "inputs": [
        {
          "internalType": "address",
          "name": "to",
          "type": "address"
        },
        {
          "internalType": "string",
          "name": "uri",
          "type": "string"
        }
      ],
      "name": "safeMint",
      "outputs": [],
      "stateMutability": "nonpayable",
      "type": "function"
    },
    {
      "inputs": [
        {
          "internalType": "address",
          "name": "from",
          "type": "address"
        },
        {
          "internalType": "address",
          "name": "to",
          "type": "address"
        },
        {
          "internalType": "uint256",
          "name": "tokenId",
          "type": "uint256"
        }
      ],
      "name": "safeTransferFrom",
      "outputs": [],
      "stateMutability": "nonpayable",
      "type": "function"
    },
    {
      "inputs": [
        {
          "internalType": "address",
          "name": "from",
          "type": "address"
        },
        {
          "internalType": "address",
          "name": "to",
          "type": "address"
        },
        {
          "internalType": "uint256",
          "name": "tokenId",
          "type": "uint256"
        },
        {
          "internalType": "bytes",
          "name": "data",
          "type": "bytes"
        }
      ],
      "name": "safeTransferFrom",
      "outputs": [],
      "stateMutability": "nonpayable",
      "type": "function"
    },
    {
      "inputs": [
        {
          "internalType": "address",
          "name": "operator",
          "type": "address"
        },
        {
          "internalType": "bool",
          "name": "approved",
          "type": "bool"
        }
      ],
      "name": "setApprovalForAll",
      "outputs": [],
      "stateMutability": "nonpayable",
      "type": "function"
    },
    {
      "inputs": [
        {
          "internalType": "uint256",
          "name": "newPrice",
          "type": "uint256"
        }
      ],
      "name": "setPrice",
      "outputs": [],
      "stateMutability": "nonpayable",
      "type": "function"
    },
    {
      "inputs": [
        {
          "internalType": "uint256",
          "name": "tokenId",
          "type": "uint256"
        },
        {
          "internalType": "string",
          "name": "newTokenURI",
          "type": "string"
        }
      ],
      "name": "setTokenURI",
      "outputs": [],
      "stateMutability": "nonpayable",
      "type": "function"
    },
    {
      "inputs": [
        {
          "internalType": "bytes4",
          "name": "interfaceId",
          "type": "bytes4"
        }
      ],
      "name": "supportsInterface",
      "outputs": [
        {
          "internalType": "bool",
          "name": "",
          "type": "bool"
        }
      ],
      "stateMutability": "view",
      "type": "function"
    },
    {
      "inputs": [],
      "name": "symbol",
      "outputs": [
        {
          "internalType": "string",
          "name": "",
          "type": "string"
        }
      ],
      "stateMutability": "view",
      "type": "function"
    },
    {
      "inputs": [
        {
          "internalType": "uint256",
          "name": "index",
          "type": "uint256"
        }
      ],
      "name": "tokenByIndex",
      "outputs": [
        {
          "internalType": "uint256",
          "name": "",
          "type": "uint256"
        }
      ],
      "stateMutability": "view",
      "type": "function"
    },
    {
      "inputs": [
        {
          "internalType": "address",
          "name": "owner",
          "type": "address"
        },
        {
          "internalType": "uint256",
          "name": "index",
          "type": "uint256"
        }
      ],
      "name": "tokenOfOwnerByIndex",
      "outputs": [
        {
          "internalType": "uint256",
          "name": "",
          "type": "uint256"
        }
      ],
      "stateMutability": "view",
      "type": "function"
    },
    {
      "inputs": [
        {
          "internalType": "uint256",
          "name": "tokenId",
          "type": "uint256"
        }
      ],
      "name": "tokenURI",
      "outputs": [
        {
          "internalType": "string",
          "name": "",
          "type": "string"
        }
      ],
      "stateMutability": "view",
      "type": "function"
    },
    {
      "inputs": [],
      "name": "totalSupply",
      "outputs": [
        {
          "internalType": "uint256",
          "name": "",
          "type": "uint256"
        }
      ],
      "stateMutability": "view",
      "type": "function"
    },
    {
      "inputs": [
        {
          "internalType": "address",
          "name": "from",
          "type": "address"
        },
        {
          "internalType": "address",
          "name": "to",
          "type": "address"
        },
        {
          "internalType": "uint256",
          "name": "tokenId",
          "type": "uint256"
        }
      ],
      "name": "transferFrom",
      "outputs": [],
      "stateMutability": "nonpayable",
      "type": "function"
    }
  ],
  "bytecode": "0x6080604052666a94d74f4300006010553480156200001c57600080fd5b50604051620027ea380380620027ea8339810160408190526200003f9162000251565b604080518082018252600c81526b2637ba32b934b0aa37b5b2b760a11b6020808301918252835180850190945260078452664c4f544552494160c81b9084015281519192916200009291600291620001ab565b508051620000a8906003906020840190620001ab565b5050600e80546001600160a01b0319166001600160a01b03841617905550620000d360003362000106565b620000ff7f9f2df0fed2c77648de5860a4cc508cd0818c85b8b8a1ab4ceeef8d981c8956a63362000106565b50620002c0565b6000828152600d602090815260408083206001600160a01b038516845290915290205460ff16620001a7576000828152600d602090815260408083206001600160a01b03851684529091529020805460ff19166001179055620001663390565b6001600160a01b0316816001600160a01b0316837f2f8788117e7eff1d82e926ec794901d17c78024a50270940304540a733656f0d60405160405180910390a45b5050565b828054620001b99062000283565b90600052602060002090601f016020900481019282620001dd576000855562000228565b82601f10620001f857805160ff191683800117855562000228565b8280016001018555821562000228579182015b82811115620002285782518255916020019190600101906200020b565b50620002369291506200023a565b5090565b5b808211156200023657600081556001016200023b565b6000602082840312156200026457600080fd5b81516001600160a01b03811681146200027c57600080fd5b9392505050565b600181811c908216806200029857607f821691505b60208210811415620002ba57634e487b7160e01b600052602260045260246000fd5b50919050565b61251a80620002d06000396000f3fe6080604052600436106101cd5760003560e01c80636352211e116100f7578063a22cb46511610095578063d204c45e11610064578063d204c45e14610539578063d539139314610559578063d547741f1461057b578063e985e9c51461059b57600080fd5b8063a22cb465146104c6578063b88d4fde146104e6578063c87b56dd14610506578063d0def5211461052657600080fd5b806391d14854116100d157806391d148541461046657806395d89b41146104865780639d1b464a1461049b578063a217fddf146104b157600080fd5b80636352211e1461040657806370a082311461042657806391b7f5ed1461044657600080fd5b8063248a9ca31161016f57806336568abe1161013e57806336568abe1461039157806342842e0e146103b15780634f6ccce7146103d15780635763440b146103f157600080fd5b8063248a9ca3146102e25780632a55205a146103125780632f2ff15d146103515780632f745c591461037157600080fd5b8063095ea7b3116101ab578063095ea7b314610261578063162094c41461028357806318160ddd146102a357806323b872dd146102c257600080fd5b806301ffc9a7146101d257806306fdde0314610207578063081812fc14610229575b600080fd5b3480156101de57600080fd5b506101f26101ed366004611e52565b6105e4565b60405190151581526020015b60405180910390f35b34801561021357600080fd5b5061021c6105f5565b6040516101fe9190611ec7565b34801561023557600080fd5b50610249610244366004611eda565b610687565b6040516001600160a01b0390911681526020016101fe565b34801561026d57600080fd5b5061028161027c366004611f0f565b6106ae565b005b34801561028f57600080fd5b5061028161029e366004611fe5565b6107c9565b3480156102af57600080fd5b50600a545b6040519081526020016101fe565b3480156102ce57600080fd5b506102816102dd36600461202c565b6107eb565b3480156102ee57600080fd5b506102b46102fd366004611eda565b6000908152600d602052604090206001015490565b34801561031e57600080fd5b5061033261032d366004612068565b61081c565b604080516001600160a01b0390931683526020830191909152016101fe565b34801561035d57600080fd5b5061028161036c36600461208a565b6108c8565b34801561037d57600080fd5b506102b461038c366004611f0f565b6108ed565b34801561039d57600080fd5b506102816103ac36600461208a565b610983565b3480156103bd57600080fd5b506102816103cc36600461202c565b610a01565b3480156103dd57600080fd5b506102b46103ec366004611eda565b610a1c565b3480156103fd57600080fd5b506102b4610aaf565b34801561041257600080fd5b50610249610421366004611eda565b610abf565b34801561043257600080fd5b506102b46104413660046120b6565b610b1f565b34801561045257600080fd5b50610281610461366004611eda565b610ba5565b34801561047257600080fd5b506101f261048136600461208a565b610bc3565b34801561049257600080fd5b5061021c610bee565b3480156104a757600080fd5b506102b460105481565b3480156104bd57600080fd5b506102b4600081565b3480156104d257600080fd5b506102816104e13660046120d1565b610bfd565b3480156104f257600080fd5b5061028161050136600461210d565b610c08565b34801561051257600080fd5b5061021c610521366004611eda565b610c40565b610281610534366004612189565b610c4b565b34801561054557600080fd5b50610281610554366004612189565b610d7d565b34801561056557600080fd5b506102b46000805160206124c583398151915281565b34801561058757600080fd5b5061028161059636600461208a565b610dc4565b3480156105a757600080fd5b506101f26105b63660046121c1565b6001600160a01b03918216600090815260076020908152604080832093909416825291909152205460ff1690565b60006105ef82610de9565b92915050565b606060028054610604906121eb565b80601f0160208091040260200160405190810160405280929190818152602001828054610630906121eb565b801561067d5780601f106106525761010080835404028352916020019161067d565b820191906000526020600020905b81548152906001019060200180831161066057829003601f168201915b5050505050905090565b600061069282610e0e565b506000908152600660205260409020546001600160a01b031690565b60006106b982610abf565b9050806001600160a01b0316836001600160a01b0316141561072c5760405162461bcd60e51b815260206004820152602160248201527f4552433732313a20617070726f76616c20746f2063757272656e74206f776e656044820152603960f91b60648201526084015b60405180910390fd5b336001600160a01b0382161480610748575061074881336105b6565b6107ba5760405162461bcd60e51b815260206004820152603e60248201527f4552433732313a20617070726f76652063616c6c6572206973206e6f7420746f60448201527f6b656e206f776e6572206e6f7220617070726f76656420666f7220616c6c00006064820152608401610723565b6107c48383610e70565b505050565b6000805160206124c58339815191526107e181610ede565b6107c48383610ee8565b6107f53382610f82565b6108115760405162461bcd60e51b815260040161072390612226565b6107c4838383611001565b60008281526001602090815260408083208151808301909252546001600160a01b038116808352600160a01b9091046001600160601b03169282019290925282916108915750604080518082019091526000546001600160a01b0381168252600160a01b90046001600160601b031660208201525b6020810151600090612710906108b0906001600160601b03168761228a565b6108ba91906122bf565b915196919550909350505050565b6000828152600d60205260409020600101546108e381610ede565b6107c483836111a8565b60006108f883610b1f565b821061095a5760405162461bcd60e51b815260206004820152602b60248201527f455243373231456e756d657261626c653a206f776e657220696e646578206f7560448201526a74206f6620626f756e647360a81b6064820152608401610723565b506001600160a01b03919091166000908152600860209081526040808320938352929052205490565b6001600160a01b03811633146109f35760405162461bcd60e51b815260206004820152602f60248201527f416363657373436f6e74726f6c3a2063616e206f6e6c792072656e6f756e636560448201526e103937b632b9903337b91039b2b63360891b6064820152608401610723565b6109fd828261122e565b5050565b6107c483838360405180602001604052806000815250610c08565b6000610a27600a5490565b8210610a8a5760405162461bcd60e51b815260206004820152602c60248201527f455243373231456e756d657261626c653a20676c6f62616c20696e646578206f60448201526b7574206f6620626f756e647360a01b6064820152608401610723565b600a8281548110610a9d57610a9d6122d3565b90600052602060002001549050919050565b6000610aba600f5490565b905090565b6000818152600460205260408120546001600160a01b0316806105ef5760405162461bcd60e51b8152602060048201526018602482015277115490cdcc8c4e881a5b9d985b1a59081d1bdad95b88125160421b6044820152606401610723565b60006001600160a01b038216610b895760405162461bcd60e51b815260206004820152602960248201527f4552433732313a2061646472657373207a65726f206973206e6f7420612076616044820152683634b21037bbb732b960b91b6064820152608401610723565b506001600160a01b031660009081526005602052604090205490565b6000805160206124c5833981519152610bbd81610ede565b50601055565b6000918252600d602090815260408084206001600160a01b0393909316845291905290205460ff1690565b606060038054610604906121eb565b6109fd338383611295565b610c123383610f82565b610c2e5760405162461bcd60e51b815260040161072390612226565b610c3a84848484611364565b50505050565b60606105ef82611397565b601054341015610cb85760405162461bcd60e51b815260206004820152603260248201527f6e6f7420656e6f75676820455448207761732073656e742e20506c656173652060448201527131b432b1b5903a37b5b2b710383934b1b29760711b6064820152608401610723565b6000610cc3600f5490565b9050610cd3600f80546001019055565b610cdd83826114a0565b610ce78183610ee8565b600e546040516000916001600160a01b03169034908381818185875af1925050503d8060008114610d34576040519150601f19603f3d011682016040523d82523d6000602084013e610d39565b606091505b5050905080610c3a5760405162461bcd60e51b815260206004820152601060248201526f3330b4b632b210383ab931b430b9b29760811b6044820152606401610723565b6000805160206124c5833981519152610d9581610ede565b6000610da0600f5490565b9050610db0600f80546001019055565b610dba84826114a0565b610c3a8184610ee8565b6000828152600d6020526040902060010154610ddf81610ede565b6107c4838361122e565b60006001600160e01b03198216637965db0b60e01b14806105ef57506105ef826114ba565b6000818152600460205260409020546001600160a01b0316610e6d5760405162461bcd60e51b8152602060048201526018602482015277115490cdcc8c4e881a5b9d985b1a59081d1bdad95b88125160421b6044820152606401610723565b50565b600081815260066020526040902080546001600160a01b0319166001600160a01b0384169081179091558190610ea582610abf565b6001600160a01b03167f8c5be1e5ebec7d5bd14f71427d1e84f3dd0314c0f7b2291e5b200ac8c7c3b92560405160405180910390a45050565b610e6d81336114c5565b6000828152600460205260409020546001600160a01b0316610f635760405162461bcd60e51b815260206004820152602e60248201527f45524337323155524953746f726167653a2055524920736574206f66206e6f6e60448201526d32bc34b9ba32b73a103a37b5b2b760911b6064820152608401610723565b6000828152600c6020908152604090912082516107c492840190611da3565b600080610f8e83610abf565b9050806001600160a01b0316846001600160a01b03161480610fd557506001600160a01b0380821660009081526007602090815260408083209388168352929052205460ff165b80610ff95750836001600160a01b0316610fee84610687565b6001600160a01b0316145b949350505050565b826001600160a01b031661101482610abf565b6001600160a01b0316146110785760405162461bcd60e51b815260206004820152602560248201527f4552433732313a207472616e736665722066726f6d20696e636f72726563742060448201526437bbb732b960d91b6064820152608401610723565b6001600160a01b0382166110da5760405162461bcd60e51b8152602060048201526024808201527f4552433732313a207472616e7366657220746f20746865207a65726f206164646044820152637265737360e01b6064820152608401610723565b6110e5838383611529565b6110f0600082610e70565b6001600160a01b03831660009081526005602052604081208054600192906111199084906122e9565b90915550506001600160a01b0382166000908152600560205260408120805460019290611147908490612300565b909155505060008181526004602052604080822080546001600160a01b0319166001600160a01b0386811691821790925591518493918716917fddf252ad1be2c89b69c2b068fc378daa952ba7f163c4a11628f55a4df523b3ef91a4505050565b6111b28282610bc3565b6109fd576000828152600d602090815260408083206001600160a01b03851684529091529020805460ff191660011790556111ea3390565b6001600160a01b0316816001600160a01b0316837f2f8788117e7eff1d82e926ec794901d17c78024a50270940304540a733656f0d60405160405180910390a45050565b6112388282610bc3565b156109fd576000828152600d602090815260408083206001600160a01b0385168085529252808320805460ff1916905551339285917ff6391f5c32d9c69d2a47ea670b442974b53935d1edc7fd64eb21e047a839171b9190a45050565b816001600160a01b0316836001600160a01b031614156112f75760405162461bcd60e51b815260206004820152601960248201527f4552433732313a20617070726f766520746f2063616c6c6572000000000000006044820152606401610723565b6001600160a01b03838116600081815260076020908152604080832094871680845294825291829020805460ff191686151590811790915591519182527f17307eab39ab6107e8899845ad3d59bd9653f200f220920489ca2b5937696c31910160405180910390a3505050565b61136f848484611001565b61137b84848484611534565b610c3a5760405162461bcd60e51b815260040161072390612318565b60606113a282610e0e565b6000828152600c6020526040812080546113bb906121eb565b80601f01602080910402602001604051908101604052809291908181526020018280546113e7906121eb565b80156114345780601f1061140957610100808354040283529160200191611434565b820191906000526020600020905b81548152906001019060200180831161141757829003601f168201915b50505050509050600061145260408051602081019091526000815290565b9050805160001415611465575092915050565b81511561149757808260405160200161147f92919061236a565b60405160208183030381529060405292505050919050565b610ff984611632565b6109fd8282604051806020016040528060008152506116a6565b60006105ef826116d9565b6114cf8282610bc3565b6109fd576114e7816001600160a01b031660146116fe565b6114f28360206116fe565b604051602001611503929190612399565b60408051601f198184030181529082905262461bcd60e51b825261072391600401611ec7565b6107c483838361189a565b60006001600160a01b0384163b1561162757604051630a85bd0160e11b81526001600160a01b0385169063150b7a029061157890339089908890889060040161240e565b6020604051808303816000875af19250505080156115b3575060408051601f3d908101601f191682019092526115b09181019061244b565b60015b61160d573d8080156115e1576040519150601f19603f3d011682016040523d82523d6000602084013e6115e6565b606091505b5080516116055760405162461bcd60e51b815260040161072390612318565b805181602001fd5b6001600160e01b031916630a85bd0160e11b149050610ff9565b506001949350505050565b606061163d82610e0e565b600061165460408051602081019091526000815290565b90506000815111611674576040518060200160405280600081525061169f565b8061167e84611952565b60405160200161168f92919061236a565b6040516020818303038152906040525b9392505050565b6116b08383611a50565b6116bd6000848484611534565b6107c45760405162461bcd60e51b815260040161072390612318565b60006001600160e01b0319821663780e9d6360e01b14806105ef57506105ef82611b9e565b6060600061170d83600261228a565b611718906002612300565b67ffffffffffffffff81111561173057611730611f39565b6040519080825280601f01601f19166020018201604052801561175a576020820181803683370190505b509050600360fc1b81600081518110611775576117756122d3565b60200101906001600160f81b031916908160001a905350600f60fb1b816001815181106117a4576117a46122d3565b60200101906001600160f81b031916908160001a90535060006117c884600261228a565b6117d3906001612300565b90505b600181111561184b576f181899199a1a9b1b9c1cb0b131b232b360811b85600f1660108110611807576118076122d3565b1a60f81b82828151811061181d5761181d6122d3565b60200101906001600160f81b031916908160001a90535060049490941c9361184481612468565b90506117d6565b50831561169f5760405162461bcd60e51b815260206004820181905260248201527f537472696e67733a20686578206c656e67746820696e73756666696369656e746044820152606401610723565b6001600160a01b0383166118f5576118f081600a80546000838152600b60205260408120829055600182018355919091527fc65a7bb8d6351c1cf70c95a316cc6a92839c986682d98bc35f958f4883f9d2a80155565b611918565b816001600160a01b0316836001600160a01b031614611918576119188382611bde565b6001600160a01b03821661192f576107c481611c7b565b826001600160a01b0316826001600160a01b0316146107c4576107c48282611d2a565b6060816119765750506040805180820190915260018152600360fc1b602082015290565b8160005b81156119a0578061198a8161247f565b91506119999050600a836122bf565b915061197a565b60008167ffffffffffffffff8111156119bb576119bb611f39565b6040519080825280601f01601f1916602001820160405280156119e5576020820181803683370190505b5090505b8415610ff9576119fa6001836122e9565b9150611a07600a8661249a565b611a12906030612300565b60f81b818381518110611a2757611a276122d3565b60200101906001600160f81b031916908160001a905350611a49600a866122bf565b94506119e9565b6001600160a01b038216611aa65760405162461bcd60e51b815260206004820181905260248201527f4552433732313a206d696e7420746f20746865207a65726f20616464726573736044820152606401610723565b6000818152600460205260409020546001600160a01b031615611b0b5760405162461bcd60e51b815260206004820152601c60248201527f4552433732313a20746f6b656e20616c7265616479206d696e746564000000006044820152606401610723565b611b1760008383611529565b6001600160a01b0382166000908152600560205260408120805460019290611b40908490612300565b909155505060008181526004602052604080822080546001600160a01b0319166001600160a01b03861690811790915590518392907fddf252ad1be2c89b69c2b068fc378daa952ba7f163c4a11628f55a4df523b3ef908290a45050565b60006001600160e01b031982166380ac58cd60e01b1480611bcf57506001600160e01b03198216635b5e139f60e01b145b806105ef57506105ef82611d6e565b60006001611beb84610b1f565b611bf591906122e9565b600083815260096020526040902054909150808214611c48576001600160a01b03841660009081526008602090815260408083208584528252808320548484528184208190558352600990915290208190555b5060009182526009602090815260408084208490556001600160a01b039094168352600881528383209183525290812055565b600a54600090611c8d906001906122e9565b6000838152600b6020526040812054600a8054939450909284908110611cb557611cb56122d3565b9060005260206000200154905080600a8381548110611cd657611cd66122d3565b6000918252602080832090910192909255828152600b9091526040808220849055858252812055600a805480611d0e57611d0e6124ae565b6001900381819060005260206000200160009055905550505050565b6000611d3583610b1f565b6001600160a01b039093166000908152600860209081526040808320868452825280832085905593825260099052919091209190915550565b60006001600160e01b0319821663152a902d60e11b14806105ef57506301ffc9a760e01b6001600160e01b03198316146105ef565b828054611daf906121eb565b90600052602060002090601f016020900481019282611dd15760008555611e17565b82601f10611dea57805160ff1916838001178555611e17565b82800160010185558215611e17579182015b82811115611e17578251825591602001919060010190611dfc565b50611e23929150611e27565b5090565b5b80821115611e235760008155600101611e28565b6001600160e01b031981168114610e6d57600080fd5b600060208284031215611e6457600080fd5b813561169f81611e3c565b60005b83811015611e8a578181015183820152602001611e72565b83811115610c3a5750506000910152565b60008151808452611eb3816020860160208601611e6f565b601f01601f19169290920160200192915050565b60208152600061169f6020830184611e9b565b600060208284031215611eec57600080fd5b5035919050565b80356001600160a01b0381168114611f0a57600080fd5b919050565b60008060408385031215611f2257600080fd5b611f2b83611ef3565b946020939093013593505050565b634e487b7160e01b600052604160045260246000fd5b600067ffffffffffffffff80841115611f6a57611f6a611f39565b604051601f8501601f19908116603f01168101908282118183101715611f9257611f92611f39565b81604052809350858152868686011115611fab57600080fd5b858560208301376000602087830101525050509392505050565b600082601f830112611fd657600080fd5b61169f83833560208501611f4f565b60008060408385031215611ff857600080fd5b82359150602083013567ffffffffffffffff81111561201657600080fd5b61202285828601611fc5565b9150509250929050565b60008060006060848603121561204157600080fd5b61204a84611ef3565b925061205860208501611ef3565b9150604084013590509250925092565b6000806040838503121561207b57600080fd5b50508035926020909101359150565b6000806040838503121561209d57600080fd5b823591506120ad60208401611ef3565b90509250929050565b6000602082840312156120c857600080fd5b61169f82611ef3565b600080604083850312156120e457600080fd5b6120ed83611ef3565b91506020830135801515811461210257600080fd5b809150509250929050565b6000806000806080858703121561212357600080fd5b61212c85611ef3565b935061213a60208601611ef3565b925060408501359150606085013567ffffffffffffffff81111561215d57600080fd5b8501601f8101871361216e57600080fd5b61217d87823560208401611f4f565b91505092959194509250565b6000806040838503121561219c57600080fd5b6121a583611ef3565b9150602083013567ffffffffffffffff81111561201657600080fd5b600080604083850312156121d457600080fd5b6121dd83611ef3565b91506120ad60208401611ef3565b600181811c908216806121ff57607f821691505b6020821081141561222057634e487b7160e01b600052602260045260246000fd5b50919050565b6020808252602e908201527f4552433732313a2063616c6c6572206973206e6f7420746f6b656e206f776e6560408201526d1c881b9bdc88185c1c1c9bdd995960921b606082015260800190565b634e487b7160e01b600052601160045260246000fd5b60008160001904831182151516156122a4576122a4612274565b500290565b634e487b7160e01b600052601260045260246000fd5b6000826122ce576122ce6122a9565b500490565b634e487b7160e01b600052603260045260246000fd5b6000828210156122fb576122fb612274565b500390565b6000821982111561231357612313612274565b500190565b60208082526032908201527f4552433732313a207472616e7366657220746f206e6f6e20455243373231526560408201527131b2b4bb32b91034b6b83632b6b2b73a32b960711b606082015260800190565b6000835161237c818460208801611e6f565b835190830190612390818360208801611e6f565b01949350505050565b7f416363657373436f6e74726f6c3a206163636f756e74200000000000000000008152600083516123d1816017850160208801611e6f565b7001034b99036b4b9b9b4b733903937b6329607d1b6017918401918201528351612402816028840160208801611e6f565b01602801949350505050565b6001600160a01b038581168252841660208201526040810183905260806060820181905260009061244190830184611e9b565b9695505050505050565b60006020828403121561245d57600080fd5b815161169f81611e3c565b60008161247757612477612274565b506000190190565b600060001982141561249357612493612274565b5060010190565b6000826124a9576124a96122a9565b500690565b634e487b7160e01b600052603160045260246000fdfe9f2df0fed2c77648de5860a4cc508cd0818c85b8b8a1ab4ceeef8d981c8956a6a2646970667358221220f809eeece7643e6cac20c782c8fd9364634e3e149a07cd984aaeee4e6ee1cdf564736f6c634300080b0033",
  "linkReferences": {},
  "deployedLinkReferences": {}
}